{
	"contracts/TheBlockChainMessenger.sol": {
		"TheBlockChainMessenger": {
			"abi": [
				{
					"inputs": [],
					"stateMutability": "nonpayable",
					"type": "constructor"
				},
				{
					"inputs": [],
					"name": "getMessage",
					"outputs": [
						{
							"internalType": "string",
							"name": "",
							"type": "string"
						}
					],
					"stateMutability": "view",
					"type": "function"
				},
				{
					"inputs": [],
					"name": "getUpdatesCount",
					"outputs": [
						{
							"internalType": "uint256",
							"name": "",
							"type": "uint256"
						}
					],
					"stateMutability": "view",
					"type": "function"
				},
				{
					"inputs": [],
					"name": "messageUpdates",
					"outputs": [
						{
							"internalType": "uint256",
							"name": "",
							"type": "uint256"
						}
					],
					"stateMutability": "view",
					"type": "function"
				},
				{
					"inputs": [],
					"name": "owner",
					"outputs": [
						{
							"internalType": "address",
							"name": "",
							"type": "address"
						}
					],
					"stateMutability": "view",
					"type": "function"
				},
				{
					"inputs": [
						{
							"internalType": "string",
							"name": "_newMessage",
							"type": "string"
						}
					],
					"name": "setMessage",
					"outputs": [],
					"stateMutability": "nonpayable",
					"type": "function"
				},
				{
					"inputs": [],
					"name": "storageMessage",
					"outputs": [
						{
							"internalType": "string",
							"name": "",
							"type": "string"
						}
					],
					"stateMutability": "view",
					"type": "function"
				}
			],
			"devdoc": {
				"kind": "dev",
				"methods": {},
				"version": 1
			},
			"evm": {
				"assembly": "    /* \"contracts/TheBlockChainMessenger.sol\":227:838  contract TheBlockChainMessenger {... */\n  mstore(0x40, 0x80)\n    /* \"contracts/TheBlockChainMessenger.sol\":266:311  string public storageMessage = \"Hello World!\" */\n  mload(0x40)\n  dup1\n  0x40\n  add\n  0x40\n  mstore\n  dup1\n  0x0c\n  dup2\n  mstore\n  0x20\n  add\n  0x48656c6c6f20576f726c64210000000000000000000000000000000000000000\n  dup2\n  mstore\n  pop\n  0x00\n  swap1\n  dup2\n  tag_1\n  swap2\n  swap1\n  tag_2\n  jump\t// in\ntag_1:\n  pop\n    /* \"contracts/TheBlockChainMessenger.sol\":403:451  constructor(){... */\n  callvalue\n  dup1\n  iszero\n  tag_3\n  jumpi\n  0x00\n  dup1\n  revert\ntag_3:\n  pop\n    /* \"contracts/TheBlockChainMessenger.sol\":434:444  msg.sender */\n  caller\n    /* \"contracts/TheBlockChainMessenger.sol\":426:431  owner */\n  0x01\n  0x00\n    /* \"contracts/TheBlockChainMessenger.sol\":426:444  owner = msg.sender */\n  0x0100\n  exp\n  dup2\n  sload\n  dup2\n  0xffffffffffffffffffffffffffffffffffffffff\n  mul\n  not\n  and\n  swap1\n  dup4\n  0xffffffffffffffffffffffffffffffffffffffff\n  and\n  mul\n  or\n  swap1\n  sstore\n  pop\n    /* \"contracts/TheBlockChainMessenger.sol\":227:838  contract TheBlockChainMessenger {... */\n  jump(tag_6)\n    /* \"#utility.yul\":7:106   */\ntag_7:\n    /* \"#utility.yul\":59:65   */\n  0x00\n    /* \"#utility.yul\":93:98   */\n  dup2\n    /* \"#utility.yul\":87:99   */\n  mload\n    /* \"#utility.yul\":77:99   */\n  swap1\n  pop\n    /* \"#utility.yul\":7:106   */\n  swap2\n  swap1\n  pop\n  jump\t// out\n    /* \"#utility.yul\":112:292   */\ntag_8:\n    /* \"#utility.yul\":160:237   */\n  0x4e487b7100000000000000000000000000000000000000000000000000000000\n    /* \"#utility.yul\":157:158   */\n  0x00\n    /* \"#utility.yul\":150:238   */\n  mstore\n    /* \"#utility.yul\":257:261   */\n  0x41\n    /* \"#utility.yul\":254:255   */\n  0x04\n    /* \"#utility.yul\":247:262   */\n  mstore\n    /* \"#utility.yul\":281:285   */\n  0x24\n    /* \"#utility.yul\":278:279   */\n  0x00\n    /* \"#utility.yul\":271:286   */\n  revert\n    /* \"#utility.yul\":298:478   */\ntag_9:\n    /* \"#utility.yul\":346:423   */\n  0x4e487b7100000000000000000000000000000000000000000000000000000000\n    /* \"#utility.yul\":343:344   */\n  0x00\n    /* \"#utility.yul\":336:424   */\n  mstore\n    /* \"#utility.yul\":443:447   */\n  0x22\n    /* \"#utility.yul\":440:441   */\n  0x04\n    /* \"#utility.yul\":433:448   */\n  mstore\n    /* \"#utility.yul\":467:471   */\n  0x24\n    /* \"#utility.yul\":464:465   */\n  0x00\n    /* \"#utility.yul\":457:472   */\n  revert\n    /* \"#utility.yul\":484:804   */\ntag_10:\n    /* \"#utility.yul\":528:534   */\n  0x00\n    /* \"#utility.yul\":565:566   */\n  0x02\n    /* \"#utility.yul\":559:563   */\n  dup3\n    /* \"#utility.yul\":555:567   */\n  div\n    /* \"#utility.yul\":545:567   */\n  swap1\n  pop\n    /* \"#utility.yul\":612:613   */\n  0x01\n    /* \"#utility.yul\":606:610   */\n  dup3\n    /* \"#utility.yul\":602:614   */\n  and\n    /* \"#utility.yul\":633:651   */\n  dup1\n    /* \"#utility.yul\":623:704   */\n  tag_32\n  jumpi\n    /* \"#utility.yul\":689:693   */\n  0x7f\n    /* \"#utility.yul\":681:687   */\n  dup3\n    /* \"#utility.yul\":677:694   */\n  and\n    /* \"#utility.yul\":667:694   */\n  swap2\n  pop\n    /* \"#utility.yul\":623:704   */\ntag_32:\n    /* \"#utility.yul\":751:753   */\n  0x20\n    /* \"#utility.yul\":743:749   */\n  dup3\n    /* \"#utility.yul\":740:754   */\n  lt\n    /* \"#utility.yul\":720:738   */\n  dup2\n    /* \"#utility.yul\":717:755   */\n  sub\n    /* \"#utility.yul\":714:798   */\n  tag_33\n  jumpi\n    /* \"#utility.yul\":770:788   */\n  tag_34\n  tag_9\n  jump\t// in\ntag_34:\n    /* \"#utility.yul\":714:798   */\ntag_33:\n    /* \"#utility.yul\":535:804   */\n  pop\n    /* \"#utility.yul\":484:804   */\n  swap2\n  swap1\n  pop\n  jump\t// out\n    /* \"#utility.yul\":810:951   */\ntag_11:\n    /* \"#utility.yul\":859:863   */\n  0x00\n    /* \"#utility.yul\":882:885   */\n  dup2\n    /* \"#utility.yul\":874:885   */\n  swap1\n  pop\n    /* \"#utility.yul\":905:908   */\n  dup2\n    /* \"#utility.yul\":902:903   */\n  0x00\n    /* \"#utility.yul\":895:909   */\n  mstore\n    /* \"#utility.yul\":939:943   */\n  0x20\n    /* \"#utility.yul\":936:937   */\n  0x00\n    /* \"#utility.yul\":926:944   */\n  keccak256\n    /* \"#utility.yul\":918:944   */\n  swap1\n  pop\n    /* \"#utility.yul\":810:951   */\n  swap2\n  swap1\n  pop\n  jump\t// out\n    /* \"#utility.yul\":957:1050   */\ntag_12:\n    /* \"#utility.yul\":994:1000   */\n  0x00\n    /* \"#utility.yul\":1041:1043   */\n  0x20\n    /* \"#utility.yul\":1036:1038   */\n  0x1f\n    /* \"#utility.yul\":1029:1034   */\n  dup4\n    /* \"#utility.yul\":1025:1039   */\n  add\n    /* \"#utility.yul\":1021:1044   */\n  div\n    /* \"#utility.yul\":1011:1044   */\n  swap1\n  pop\n    /* \"#utility.yul\":957:1050   */\n  swap2\n  swap1\n  pop\n  jump\t// out\n    /* \"#utility.yul\":1056:1163   */\ntag_13:\n    /* \"#utility.yul\":1100:1108   */\n  0x00\n    /* \"#utility.yul\":1150:1155   */\n  dup3\n    /* \"#utility.yul\":1144:1148   */\n  dup3\n    /* \"#utility.yul\":1140:1156   */\n  shl\n    /* \"#utility.yul\":1119:1156   */\n  swap1\n  pop\n    /* \"#utility.yul\":1056:1163   */\n  swap3\n  swap2\n  pop\n  pop\n  jump\t// out\n    /* \"#utility.yul\":1169:1562   */\ntag_14:\n    /* \"#utility.yul\":1238:1244   */\n  0x00\n    /* \"#utility.yul\":1288:1289   */\n  0x08\n    /* \"#utility.yul\":1276:1286   */\n  dup4\n    /* \"#utility.yul\":1272:1290   */\n  mul\n    /* \"#utility.yul\":1311:1408   */\n  tag_39\n    /* \"#utility.yul\":1341:1407   */\n  0xffffffffffffffffffffffffffffffffffffffffffffffffffffffffffffffff\n    /* \"#utility.yul\":1330:1339   */\n  dup3\n    /* \"#utility.yul\":1311:1408   */\n  tag_13\n  jump\t// in\ntag_39:\n    /* \"#utility.yul\":1429:1468   */\n  tag_40\n    /* \"#utility.yul\":1459:1467   */\n  dup7\n    /* \"#utility.yul\":1448:1457   */\n  dup4\n    /* \"#utility.yul\":1429:1468   */\n  tag_13\n  jump\t// in\ntag_40:\n    /* \"#utility.yul\":1417:1468   */\n  swap6\n  pop\n    /* \"#utility.yul\":1501:1505   */\n  dup1\n    /* \"#utility.yul\":1497:1506   */\n  not\n    /* \"#utility.yul\":1490:1495   */\n  dup5\n    /* \"#utility.yul\":1486:1507   */\n  and\n    /* \"#utility.yul\":1477:1507   */\n  swap4\n  pop\n    /* \"#utility.yul\":1550:1554   */\n  dup1\n    /* \"#utility.yul\":1540:1548   */\n  dup7\n    /* \"#utility.yul\":1536:1555   */\n  and\n    /* \"#utility.yul\":1529:1534   */\n  dup5\n    /* \"#utility.yul\":1526:1556   */\n  or\n    /* \"#utility.yul\":1516:1556   */\n  swap3\n  pop\n    /* \"#utility.yul\":1245:1562   */\n  pop\n  pop\n    /* \"#utility.yul\":1169:1562   */\n  swap4\n  swap3\n  pop\n  pop\n  pop\n  jump\t// out\n    /* \"#utility.yul\":1568:1645   */\ntag_15:\n    /* \"#utility.yul\":1605:1612   */\n  0x00\n    /* \"#utility.yul\":1634:1639   */\n  dup2\n    /* \"#utility.yul\":1623:1639   */\n  swap1\n  pop\n    /* \"#utility.yul\":1568:1645   */\n  swap2\n  swap1\n  pop\n  jump\t// out\n    /* \"#utility.yul\":1651:1711   */\ntag_16:\n    /* \"#utility.yul\":1679:1682   */\n  0x00\n    /* \"#utility.yul\":1700:1705   */\n  dup2\n    /* \"#utility.yul\":1693:1705   */\n  swap1\n  pop\n    /* \"#utility.yul\":1651:1711   */\n  swap2\n  swap1\n  pop\n  jump\t// out\n    /* \"#utility.yul\":1717:1859   */\ntag_17:\n    /* \"#utility.yul\":1767:1776   */\n  0x00\n    /* \"#utility.yul\":1800:1853   */\n  tag_44\n    /* \"#utility.yul\":1818:1852   */\n  tag_45\n    /* \"#utility.yul\":1827:1851   */\n  tag_46\n    /* \"#utility.yul\":1845:1850   */\n  dup5\n    /* \"#utility.yul\":1827:1851   */\n  tag_15\n  jump\t// in\ntag_46:\n    /* \"#utility.yul\":1818:1852   */\n  tag_16\n  jump\t// in\ntag_45:\n    /* \"#utility.yul\":1800:1853   */\n  tag_15\n  jump\t// in\ntag_44:\n    /* \"#utility.yul\":1787:1853   */\n  swap1\n  pop\n    /* \"#utility.yul\":1717:1859   */\n  swap2\n  swap1\n  pop\n  jump\t// out\n    /* \"#utility.yul\":1865:1940   */\ntag_18:\n    /* \"#utility.yul\":1908:1911   */\n  0x00\n    /* \"#utility.yul\":1929:1934   */\n  dup2\n    /* \"#utility.yul\":1922:1934   */\n  swap1\n  pop\n    /* \"#utility.yul\":1865:1940   */\n  swap2\n  swap1\n  pop\n  jump\t// out\n    /* \"#utility.yul\":1946:2215   */\ntag_19:\n    /* \"#utility.yul\":2056:2095   */\n  tag_49\n    /* \"#utility.yul\":2087:2094   */\n  dup4\n    /* \"#utility.yul\":2056:2095   */\n  tag_17\n  jump\t// in\ntag_49:\n    /* \"#utility.yul\":2117:2208   */\n  tag_50\n    /* \"#utility.yul\":2166:2207   */\n  tag_51\n    /* \"#utility.yul\":2190:2206   */\n  dup3\n    /* \"#utility.yul\":2166:2207   */\n  tag_18\n  jump\t// in\ntag_51:\n    /* \"#utility.yul\":2158:2164   */\n  dup5\n    /* \"#utility.yul\":2151:2155   */\n  dup5\n    /* \"#utility.yul\":2145:2156   */\n  sload\n    /* \"#utility.yul\":2117:2208   */\n  tag_14\n  jump\t// in\ntag_50:\n    /* \"#utility.yul\":2111:2115   */\n  dup3\n    /* \"#utility.yul\":2104:2209   */\n  sstore\n    /* \"#utility.yul\":2022:2215   */\n  pop\n    /* \"#utility.yul\":1946:2215   */\n  pop\n  pop\n  pop\n  jump\t// out\n    /* \"#utility.yul\":2221:2294   */\ntag_20:\n    /* \"#utility.yul\":2266:2269   */\n  0x00\n    /* \"#utility.yul\":2221:2294   */\n  swap1\n  jump\t// out\n    /* \"#utility.yul\":2300:2489   */\ntag_21:\n    /* \"#utility.yul\":2377:2409   */\n  tag_54\n  tag_20\n  jump\t// in\ntag_54:\n    /* \"#utility.yul\":2418:2483   */\n  tag_55\n    /* \"#utility.yul\":2476:2482   */\n  dup2\n    /* \"#utility.yul\":2468:2474   */\n  dup5\n    /* \"#utility.yul\":2462:2466   */\n  dup5\n    /* \"#utility.yul\":2418:2483   */\n  tag_19\n  jump\t// in\ntag_55:\n    /* \"#utility.yul\":2353:2489   */\n  pop\n    /* \"#utility.yul\":2300:2489   */\n  pop\n  pop\n  jump\t// out\n    /* \"#utility.yul\":2495:2681   */\ntag_22:\n    /* \"#utility.yul\":2555:2675   */\ntag_57:\n    /* \"#utility.yul\":2572:2575   */\n  dup2\n    /* \"#utility.yul\":2565:2570   */\n  dup2\n    /* \"#utility.yul\":2562:2576   */\n  lt\n    /* \"#utility.yul\":2555:2675   */\n  iszero\n  tag_59\n  jumpi\n    /* \"#utility.yul\":2626:2665   */\n  tag_60\n    /* \"#utility.yul\":2663:2664   */\n  0x00\n    /* \"#utility.yul\":2656:2661   */\n  dup3\n    /* \"#utility.yul\":2626:2665   */\n  tag_21\n  jump\t// in\ntag_60:\n    /* \"#utility.yul\":2599:2600   */\n  0x01\n    /* \"#utility.yul\":2592:2597   */\n  dup2\n    /* \"#utility.yul\":2588:2601   */\n  add\n    /* \"#utility.yul\":2579:2601   */\n  swap1\n  pop\n    /* \"#utility.yul\":2555:2675   */\n  jump(tag_57)\ntag_59:\n    /* \"#utility.yul\":2495:2681   */\n  pop\n  pop\n  jump\t// out\n    /* \"#utility.yul\":2687:3230   */\ntag_23:\n    /* \"#utility.yul\":2788:2790   */\n  0x1f\n    /* \"#utility.yul\":2783:2786   */\n  dup3\n    /* \"#utility.yul\":2780:2791   */\n  gt\n    /* \"#utility.yul\":2777:3223   */\n  iszero\n  tag_62\n  jumpi\n    /* \"#utility.yul\":2822:2860   */\n  tag_63\n    /* \"#utility.yul\":2854:2859   */\n  dup2\n    /* \"#utility.yul\":2822:2860   */\n  tag_11\n  jump\t// in\ntag_63:\n    /* \"#utility.yul\":2906:2935   */\n  tag_64\n    /* \"#utility.yul\":2924:2934   */\n  dup5\n    /* \"#utility.yul\":2906:2935   */\n  tag_12\n  jump\t// in\ntag_64:\n    /* \"#utility.yul\":2896:2904   */\n  dup2\n    /* \"#utility.yul\":2892:2936   */\n  add\n    /* \"#utility.yul\":3089:3091   */\n  0x20\n    /* \"#utility.yul\":3077:3087   */\n  dup6\n    /* \"#utility.yul\":3074:3092   */\n  lt\n    /* \"#utility.yul\":3071:3120   */\n  iszero\n  tag_65\n  jumpi\n    /* \"#utility.yul\":3110:3118   */\n  dup2\n    /* \"#utility.yul\":3095:3118   */\n  swap1\n  pop\n    /* \"#utility.yul\":3071:3120   */\ntag_65:\n    /* \"#utility.yul\":3133:3213   */\n  tag_66\n    /* \"#utility.yul\":3189:3211   */\n  tag_67\n    /* \"#utility.yul\":3207:3210   */\n  dup6\n    /* \"#utility.yul\":3189:3211   */\n  tag_12\n  jump\t// in\ntag_67:\n    /* \"#utility.yul\":3179:3187   */\n  dup4\n    /* \"#utility.yul\":3175:3212   */\n  add\n    /* \"#utility.yul\":3162:3173   */\n  dup3\n    /* \"#utility.yul\":3133:3213   */\n  tag_22\n  jump\t// in\ntag_66:\n    /* \"#utility.yul\":2792:3223   */\n  pop\n  pop\n    /* \"#utility.yul\":2777:3223   */\ntag_62:\n    /* \"#utility.yul\":2687:3230   */\n  pop\n  pop\n  pop\n  jump\t// out\n    /* \"#utility.yul\":3236:3353   */\ntag_24:\n    /* \"#utility.yul\":3290:3298   */\n  0x00\n    /* \"#utility.yul\":3340:3345   */\n  dup3\n    /* \"#utility.yul\":3334:3338   */\n  dup3\n    /* \"#utility.yul\":3330:3346   */\n  shr\n    /* \"#utility.yul\":3309:3346   */\n  swap1\n  pop\n    /* \"#utility.yul\":3236:3353   */\n  swap3\n  swap2\n  pop\n  pop\n  jump\t// out\n    /* \"#utility.yul\":3359:3528   */\ntag_25:\n    /* \"#utility.yul\":3403:3409   */\n  0x00\n    /* \"#utility.yul\":3436:3487   */\n  tag_70\n    /* \"#utility.yul\":3484:3485   */\n  0x00\n    /* \"#utility.yul\":3480:3486   */\n  not\n    /* \"#utility.yul\":3472:3477   */\n  dup5\n    /* \"#utility.yul\":3469:3470   */\n  0x08\n    /* \"#utility.yul\":3465:3478   */\n  mul\n    /* \"#utility.yul\":3436:3487   */\n  tag_24\n  jump\t// in\ntag_70:\n    /* \"#utility.yul\":3432:3488   */\n  not\n    /* \"#utility.yul\":3517:3521   */\n  dup1\n    /* \"#utility.yul\":3511:3515   */\n  dup4\n    /* \"#utility.yul\":3507:3522   */\n  and\n    /* \"#utility.yul\":3497:3522   */\n  swap2\n  pop\n    /* \"#utility.yul\":3410:3528   */\n  pop\n    /* \"#utility.yul\":3359:3528   */\n  swap3\n  swap2\n  pop\n  pop\n  jump\t// out\n    /* \"#utility.yul\":3533:3828   */\ntag_26:\n    /* \"#utility.yul\":3609:3613   */\n  0x00\n    /* \"#utility.yul\":3755:3784   */\n  tag_72\n    /* \"#utility.yul\":3780:3783   */\n  dup4\n    /* \"#utility.yul\":3774:3778   */\n  dup4\n    /* \"#utility.yul\":3755:3784   */\n  tag_25\n  jump\t// in\ntag_72:\n    /* \"#utility.yul\":3747:3784   */\n  swap2\n  pop\n    /* \"#utility.yul\":3817:3820   */\n  dup3\n    /* \"#utility.yul\":3814:3815   */\n  0x02\n    /* \"#utility.yul\":3810:3821   */\n  mul\n    /* \"#utility.yul\":3804:3808   */\n  dup3\n    /* \"#utility.yul\":3801:3822   */\n  or\n    /* \"#utility.yul\":3793:3822   */\n  swap1\n  pop\n    /* \"#utility.yul\":3533:3828   */\n  swap3\n  swap2\n  pop\n  pop\n  jump\t// out\n    /* \"#utility.yul\":3833:5228   */\ntag_2:\n    /* \"#utility.yul\":3950:3987   */\n  tag_74\n    /* \"#utility.yul\":3983:3986   */\n  dup3\n    /* \"#utility.yul\":3950:3987   */\n  tag_7\n  jump\t// in\ntag_74:\n    /* \"#utility.yul\":4052:4070   */\n  0xffffffffffffffff\n    /* \"#utility.yul\":4044:4050   */\n  dup2\n    /* \"#utility.yul\":4041:4071   */\n  gt\n    /* \"#utility.yul\":4038:4094   */\n  iszero\n  tag_75\n  jumpi\n    /* \"#utility.yul\":4074:4092   */\n  tag_76\n  tag_8\n  jump\t// in\ntag_76:\n    /* \"#utility.yul\":4038:4094   */\ntag_75:\n    /* \"#utility.yul\":4118:4156   */\n  tag_77\n    /* \"#utility.yul\":4150:4154   */\n  dup3\n    /* \"#utility.yul\":4144:4155   */\n  sload\n    /* \"#utility.yul\":4118:4156   */\n  tag_10\n  jump\t// in\ntag_77:\n    /* \"#utility.yul\":4203:4270   */\n  tag_78\n    /* \"#utility.yul\":4263:4269   */\n  dup3\n    /* \"#utility.yul\":4255:4261   */\n  dup3\n    /* \"#utility.yul\":4249:4253   */\n  dup6\n    /* \"#utility.yul\":4203:4270   */\n  tag_23\n  jump\t// in\ntag_78:\n    /* \"#utility.yul\":4297:4298   */\n  0x00\n    /* \"#utility.yul\":4321:4325   */\n  0x20\n    /* \"#utility.yul\":4308:4325   */\n  swap1\n  pop\n    /* \"#utility.yul\":4353:4355   */\n  0x1f\n    /* \"#utility.yul\":4345:4351   */\n  dup4\n    /* \"#utility.yul\":4342:4356   */\n  gt\n    /* \"#utility.yul\":4370:4371   */\n  0x01\n    /* \"#utility.yul\":4365:4983   */\n  dup2\n  eq\n  tag_80\n  jumpi\n    /* \"#utility.yul\":5027:5028   */\n  0x00\n    /* \"#utility.yul\":5044:5050   */\n  dup5\n    /* \"#utility.yul\":5041:5118   */\n  iszero\n  tag_81\n  jumpi\n    /* \"#utility.yul\":5093:5102   */\n  dup3\n    /* \"#utility.yul\":5088:5091   */\n  dup8\n    /* \"#utility.yul\":5084:5103   */\n  add\n    /* \"#utility.yul\":5078:5104   */\n  mload\n    /* \"#utility.yul\":5069:5104   */\n  swap1\n  pop\n    /* \"#utility.yul\":5041:5118   */\ntag_81:\n    /* \"#utility.yul\":5144:5211   */\n  tag_82\n    /* \"#utility.yul\":5204:5210   */\n  dup6\n    /* \"#utility.yul\":5197:5202   */\n  dup3\n    /* \"#utility.yul\":5144:5211   */\n  tag_26\n  jump\t// in\ntag_82:\n    /* \"#utility.yul\":5138:5142   */\n  dup7\n    /* \"#utility.yul\":5131:5212   */\n  sstore\n    /* \"#utility.yul\":5000:5222   */\n  pop\n    /* \"#utility.yul\":4335:5222   */\n  jump(tag_79)\n    /* \"#utility.yul\":4365:4983   */\ntag_80:\n    /* \"#utility.yul\":4417:4421   */\n  0x1f\n    /* \"#utility.yul\":4413:4422   */\n  not\n    /* \"#utility.yul\":4405:4411   */\n  dup5\n    /* \"#utility.yul\":4401:4423   */\n  and\n    /* \"#utility.yul\":4451:4488   */\n  tag_83\n    /* \"#utility.yul\":4483:4487   */\n  dup7\n    /* \"#utility.yul\":4451:4488   */\n  tag_11\n  jump\t// in\ntag_83:\n    /* \"#utility.yul\":4510:4511   */\n  0x00\n    /* \"#utility.yul\":4524:4732   */\ntag_84:\n    /* \"#utility.yul\":4538:4545   */\n  dup3\n    /* \"#utility.yul\":4535:4536   */\n  dup2\n    /* \"#utility.yul\":4532:4546   */\n  lt\n    /* \"#utility.yul\":4524:4732   */\n  iszero\n  tag_86\n  jumpi\n    /* \"#utility.yul\":4617:4626   */\n  dup5\n    /* \"#utility.yul\":4612:4615   */\n  dup10\n    /* \"#utility.yul\":4608:4627   */\n  add\n    /* \"#utility.yul\":4602:4628   */\n  mload\n    /* \"#utility.yul\":4594:4600   */\n  dup3\n    /* \"#utility.yul\":4587:4629   */\n  sstore\n    /* \"#utility.yul\":4668:4669   */\n  0x01\n    /* \"#utility.yul\":4660:4666   */\n  dup3\n    /* \"#utility.yul\":4656:4670   */\n  add\n    /* \"#utility.yul\":4646:4670   */\n  swap2\n  pop\n    /* \"#utility.yul\":4715:4717   */\n  0x20\n    /* \"#utility.yul\":4704:4713   */\n  dup6\n    /* \"#utility.yul\":4700:4718   */\n  add\n    /* \"#utility.yul\":4687:4718   */\n  swap5\n  pop\n    /* \"#utility.yul\":4561:4565   */\n  0x20\n    /* \"#utility.yul\":4558:4559   */\n  dup2\n    /* \"#utility.yul\":4554:4566   */\n  add\n    /* \"#utility.yul\":4549:4566   */\n  swap1\n  pop\n    /* \"#utility.yul\":4524:4732   */\n  jump(tag_84)\ntag_86:\n    /* \"#utility.yul\":4760:4766   */\n  dup7\n    /* \"#utility.yul\":4751:4758   */\n  dup4\n    /* \"#utility.yul\":4748:4767   */\n  lt\n    /* \"#utility.yul\":4745:4924   */\n  iszero\n  tag_87\n  jumpi\n    /* \"#utility.yul\":4818:4827   */\n  dup5\n    /* \"#utility.yul\":4813:4816   */\n  dup10\n    /* \"#utility.yul\":4809:4828   */\n  add\n    /* \"#utility.yul\":4803:4829   */\n  mload\n    /* \"#utility.yul\":4861:4909   */\n  tag_88\n    /* \"#utility.yul\":4903:4907   */\n  0x1f\n    /* \"#utility.yul\":4895:4901   */\n  dup10\n    /* \"#utility.yul\":4891:4908   */\n  and\n    /* \"#utility.yul\":4880:4889   */\n  dup3\n    /* \"#utility.yul\":4861:4909   */\n  tag_25\n  jump\t// in\ntag_88:\n    /* \"#utility.yul\":4853:4859   */\n  dup4\n    /* \"#utility.yul\":4846:4910   */\n  sstore\n    /* \"#utility.yul\":4768:4924   */\n  pop\n    /* \"#utility.yul\":4745:4924   */\ntag_87:\n    /* \"#utility.yul\":4970:4971   */\n  0x01\n    /* \"#utility.yul\":4966:4967   */\n  0x02\n    /* \"#utility.yul\":4958:4964   */\n  dup9\n    /* \"#utility.yul\":4954:4968   */\n  mul\n    /* \"#utility.yul\":4950:4972   */\n  add\n    /* \"#utility.yul\":4944:4948   */\n  dup9\n    /* \"#utility.yul\":4937:4973   */\n  sstore\n    /* \"#utility.yul\":4372:4983   */\n  pop\n  pop\n  pop\n    /* \"#utility.yul\":4335:5222   */\ntag_79:\n  pop\n    /* \"#utility.yul\":3925:5228   */\n  pop\n  pop\n  pop\n    /* \"#utility.yul\":3833:5228   */\n  pop\n  pop\n  jump\t// out\n    /* \"contracts/TheBlockChainMessenger.sol\":227:838  contract TheBlockChainMessenger {... */\ntag_6:\n  dataSize(sub_0)\n  dup1\n  dataOffset(sub_0)\n  0x00\n  codecopy\n  0x00\n  return\nstop\n\nsub_0: assembly {\n        /* \"contracts/TheBlockChainMessenger.sol\":227:838  contract TheBlockChainMessenger {... */\n      mstore(0x40, 0x80)\n      callvalue\n      dup1\n      iszero\n      tag_1\n      jumpi\n      0x00\n      dup1\n      revert\n    tag_1:\n      pop\n      jumpi(tag_2, lt(calldatasize, 0x04))\n      shr(0xe0, calldataload(0x00))\n      dup1\n      0x368b8772\n      eq\n      tag_3\n      jumpi\n      dup1\n      0x8da5cb5b\n      eq\n      tag_4\n      jumpi\n      dup1\n      0xa7c9d41a\n      eq\n      tag_5\n      jumpi\n      dup1\n      0xce6d41de\n      eq\n      tag_6\n      jumpi\n      dup1\n      0xe333c8b8\n      eq\n      tag_7\n      jumpi\n      dup1\n      0xf3930a77\n      eq\n      tag_8\n      jumpi\n    tag_2:\n      0x00\n      dup1\n      revert\n        /* \"contracts/TheBlockChainMessenger.sol\":656:833  function setMessage(string memory _newMessage) public {... */\n    tag_3:\n      tag_9\n      0x04\n      dup1\n      calldatasize\n      sub\n      dup2\n      add\n      swap1\n      tag_10\n      swap2\n      swap1\n      tag_11\n      jump\t// in\n    tag_10:\n      tag_12\n      jump\t// in\n    tag_9:\n      stop\n        /* \"contracts/TheBlockChainMessenger.sol\":333:353  address public owner */\n    tag_4:\n      tag_13\n      tag_14\n      jump\t// in\n    tag_13:\n      mload(0x40)\n      tag_15\n      swap2\n      swap1\n      tag_16\n      jump\t// in\n    tag_15:\n      mload(0x40)\n      dup1\n      swap2\n      sub\n      swap1\n      return\n        /* \"contracts/TheBlockChainMessenger.sol\":359:385  uint public messageUpdates */\n    tag_5:\n      tag_17\n      tag_18\n      jump\t// in\n    tag_17:\n      mload(0x40)\n      tag_19\n      swap2\n      swap1\n      tag_20\n      jump\t// in\n    tag_19:\n      mload(0x40)\n      dup1\n      swap2\n      sub\n      swap1\n      return\n        /* \"contracts/TheBlockChainMessenger.sol\":457:552  function getMessage() public view returns(string memory) {... */\n    tag_6:\n      tag_21\n      tag_22\n      jump\t// in\n    tag_21:\n      mload(0x40)\n      tag_23\n      swap2\n      swap1\n      tag_24\n      jump\t// in\n    tag_23:\n      mload(0x40)\n      dup1\n      swap2\n      sub\n      swap1\n      return\n        /* \"contracts/TheBlockChainMessenger.sol\":266:311  string public storageMessage = \"Hello World!\" */\n    tag_7:\n      tag_25\n      tag_26\n      jump\t// in\n    tag_25:\n      mload(0x40)\n      tag_27\n      swap2\n      swap1\n      tag_24\n      jump\t// in\n    tag_27:\n      mload(0x40)\n      dup1\n      swap2\n      sub\n      swap1\n      return\n        /* \"contracts/TheBlockChainMessenger.sol\":559:650  function getUpdatesCount() public view returns(uint) {... */\n    tag_8:\n      tag_28\n      tag_29\n      jump\t// in\n    tag_28:\n      mload(0x40)\n      tag_30\n      swap2\n      swap1\n      tag_20\n      jump\t// in\n    tag_30:\n      mload(0x40)\n      dup1\n      swap2\n      sub\n      swap1\n      return\n        /* \"contracts/TheBlockChainMessenger.sol\":656:833  function setMessage(string memory _newMessage) public {... */\n    tag_12:\n        /* \"contracts/TheBlockChainMessenger.sol\":737:742  owner */\n      0x01\n      0x00\n      swap1\n      sload\n      swap1\n      0x0100\n      exp\n      swap1\n      div\n      0xffffffffffffffffffffffffffffffffffffffff\n      and\n        /* \"contracts/TheBlockChainMessenger.sol\":723:742  msg.sender == owner */\n      0xffffffffffffffffffffffffffffffffffffffff\n      and\n        /* \"contracts/TheBlockChainMessenger.sol\":723:733  msg.sender */\n      caller\n        /* \"contracts/TheBlockChainMessenger.sol\":723:742  msg.sender == owner */\n      0xffffffffffffffffffffffffffffffffffffffff\n      and\n      sub\n        /* \"contracts/TheBlockChainMessenger.sol\":720:827  if(msg.sender == owner) {... */\n      tag_32\n      jumpi\n        /* \"contracts/TheBlockChainMessenger.sol\":775:786  _newMessage */\n      dup1\n        /* \"contracts/TheBlockChainMessenger.sol\":758:772  storageMessage */\n      0x00\n        /* \"contracts/TheBlockChainMessenger.sol\":758:786  storageMessage = _newMessage */\n      swap1\n      dup2\n      tag_33\n      swap2\n      swap1\n      tag_34\n      jump\t// in\n    tag_33:\n      pop\n        /* \"contracts/TheBlockChainMessenger.sol\":800:814  messageUpdates */\n      0x02\n      0x00\n        /* \"contracts/TheBlockChainMessenger.sol\":800:816  messageUpdates++ */\n      dup2\n      sload\n      dup1\n      swap3\n      swap2\n      swap1\n      tag_35\n      swap1\n      tag_36\n      jump\t// in\n    tag_35:\n      swap2\n      swap1\n      pop\n      sstore\n      pop\n        /* \"contracts/TheBlockChainMessenger.sol\":720:827  if(msg.sender == owner) {... */\n    tag_32:\n        /* \"contracts/TheBlockChainMessenger.sol\":656:833  function setMessage(string memory _newMessage) public {... */\n      pop\n      jump\t// out\n        /* \"contracts/TheBlockChainMessenger.sol\":333:353  address public owner */\n    tag_14:\n      0x01\n      0x00\n      swap1\n      sload\n      swap1\n      0x0100\n      exp\n      swap1\n      div\n      0xffffffffffffffffffffffffffffffffffffffff\n      and\n      dup2\n      jump\t// out\n        /* \"contracts/TheBlockChainMessenger.sol\":359:385  uint public messageUpdates */\n    tag_18:\n      sload(0x02)\n      dup2\n      jump\t// out\n        /* \"contracts/TheBlockChainMessenger.sol\":457:552  function getMessage() public view returns(string memory) {... */\n    tag_22:\n        /* \"contracts/TheBlockChainMessenger.sol\":499:512  string memory */\n      0x60\n        /* \"contracts/TheBlockChainMessenger.sol\":531:545  storageMessage */\n      0x00\n        /* \"contracts/TheBlockChainMessenger.sol\":524:545  return storageMessage */\n      dup1\n      sload\n      tag_38\n      swap1\n      tag_39\n      jump\t// in\n    tag_38:\n      dup1\n      0x1f\n      add\n      0x20\n      dup1\n      swap2\n      div\n      mul\n      0x20\n      add\n      mload(0x40)\n      swap1\n      dup2\n      add\n      0x40\n      mstore\n      dup1\n      swap3\n      swap2\n      swap1\n      dup2\n      dup2\n      mstore\n      0x20\n      add\n      dup3\n      dup1\n      sload\n      tag_40\n      swap1\n      tag_39\n      jump\t// in\n    tag_40:\n      dup1\n      iszero\n      tag_41\n      jumpi\n      dup1\n      0x1f\n      lt\n      tag_42\n      jumpi\n      0x0100\n      dup1\n      dup4\n      sload\n      div\n      mul\n      dup4\n      mstore\n      swap2\n      0x20\n      add\n      swap2\n      jump(tag_41)\n    tag_42:\n      dup3\n      add\n      swap2\n      swap1\n      0x00\n      mstore\n      keccak256(0x00, 0x20)\n      swap1\n    tag_43:\n      dup2\n      sload\n      dup2\n      mstore\n      swap1\n      0x01\n      add\n      swap1\n      0x20\n      add\n      dup1\n      dup4\n      gt\n      tag_43\n      jumpi\n      dup3\n      swap1\n      sub\n      0x1f\n      and\n      dup3\n      add\n      swap2\n    tag_41:\n      pop\n      pop\n      pop\n      pop\n      pop\n      swap1\n      pop\n        /* \"contracts/TheBlockChainMessenger.sol\":457:552  function getMessage() public view returns(string memory) {... */\n      swap1\n      jump\t// out\n        /* \"contracts/TheBlockChainMessenger.sol\":266:311  string public storageMessage = \"Hello World!\" */\n    tag_26:\n      0x00\n      dup1\n      sload\n      tag_44\n      swap1\n      tag_39\n      jump\t// in\n    tag_44:\n      dup1\n      0x1f\n      add\n      0x20\n      dup1\n      swap2\n      div\n      mul\n      0x20\n      add\n      mload(0x40)\n      swap1\n      dup2\n      add\n      0x40\n      mstore\n      dup1\n      swap3\n      swap2\n      swap1\n      dup2\n      dup2\n      mstore\n      0x20\n      add\n      dup3\n      dup1\n      sload\n      tag_45\n      swap1\n      tag_39\n      jump\t// in\n    tag_45:\n      dup1\n      iszero\n      tag_46\n      jumpi\n      dup1\n      0x1f\n      lt\n      tag_47\n      jumpi\n      0x0100\n      dup1\n      dup4\n      sload\n      div\n      mul\n      dup4\n      mstore\n      swap2\n      0x20\n      add\n      swap2\n      jump(tag_46)\n    tag_47:\n      dup3\n      add\n      swap2\n      swap1\n      0x00\n      mstore\n      keccak256(0x00, 0x20)\n      swap1\n    tag_48:\n      dup2\n      sload\n      dup2\n      mstore\n      swap1\n      0x01\n      add\n      swap1\n      0x20\n      add\n      dup1\n      dup4\n      gt\n      tag_48\n      jumpi\n      dup3\n      swap1\n      sub\n      0x1f\n      and\n      dup3\n      add\n      swap2\n    tag_46:\n      pop\n      pop\n      pop\n      pop\n      pop\n      dup2\n      jump\t// out\n        /* \"contracts/TheBlockChainMessenger.sol\":559:650  function getUpdatesCount() public view returns(uint) {... */\n    tag_29:\n        /* \"contracts/TheBlockChainMessenger.sol\":606:610  uint */\n      0x00\n        /* \"contracts/TheBlockChainMessenger.sol\":629:643  messageUpdates */\n      sload(0x02)\n        /* \"contracts/TheBlockChainMessenger.sol\":622:643  return messageUpdates */\n      swap1\n      pop\n        /* \"contracts/TheBlockChainMessenger.sol\":559:650  function getUpdatesCount() public view returns(uint) {... */\n      swap1\n      jump\t// out\n        /* \"#utility.yul\":7:82   */\n    tag_50:\n        /* \"#utility.yul\":40:46   */\n      0x00\n        /* \"#utility.yul\":73:75   */\n      0x40\n        /* \"#utility.yul\":67:76   */\n      mload\n        /* \"#utility.yul\":57:76   */\n      swap1\n      pop\n        /* \"#utility.yul\":7:82   */\n      swap1\n      jump\t// out\n        /* \"#utility.yul\":88:205   */\n    tag_51:\n        /* \"#utility.yul\":197:198   */\n      0x00\n        /* \"#utility.yul\":194:195   */\n      dup1\n        /* \"#utility.yul\":187:199   */\n      revert\n        /* \"#utility.yul\":211:328   */\n    tag_52:\n        /* \"#utility.yul\":320:321   */\n      0x00\n        /* \"#utility.yul\":317:318   */\n      dup1\n        /* \"#utility.yul\":310:322   */\n      revert\n        /* \"#utility.yul\":334:451   */\n    tag_53:\n        /* \"#utility.yul\":443:444   */\n      0x00\n        /* \"#utility.yul\":440:441   */\n      dup1\n        /* \"#utility.yul\":433:445   */\n      revert\n        /* \"#utility.yul\":457:574   */\n    tag_54:\n        /* \"#utility.yul\":566:567   */\n      0x00\n        /* \"#utility.yul\":563:564   */\n      dup1\n        /* \"#utility.yul\":556:568   */\n      revert\n        /* \"#utility.yul\":580:682   */\n    tag_55:\n        /* \"#utility.yul\":621:627   */\n      0x00\n        /* \"#utility.yul\":672:674   */\n      0x1f\n        /* \"#utility.yul\":668:675   */\n      not\n        /* \"#utility.yul\":663:665   */\n      0x1f\n        /* \"#utility.yul\":656:661   */\n      dup4\n        /* \"#utility.yul\":652:666   */\n      add\n        /* \"#utility.yul\":648:676   */\n      and\n        /* \"#utility.yul\":638:676   */\n      swap1\n      pop\n        /* \"#utility.yul\":580:682   */\n      swap2\n      swap1\n      pop\n      jump\t// out\n        /* \"#utility.yul\":688:868   */\n    tag_56:\n        /* \"#utility.yul\":736:813   */\n      0x4e487b7100000000000000000000000000000000000000000000000000000000\n        /* \"#utility.yul\":733:734   */\n      0x00\n        /* \"#utility.yul\":726:814   */\n      mstore\n        /* \"#utility.yul\":833:837   */\n      0x41\n        /* \"#utility.yul\":830:831   */\n      0x04\n        /* \"#utility.yul\":823:838   */\n      mstore\n        /* \"#utility.yul\":857:861   */\n      0x24\n        /* \"#utility.yul\":854:855   */\n      0x00\n        /* \"#utility.yul\":847:862   */\n      revert\n        /* \"#utility.yul\":874:1155   */\n    tag_57:\n        /* \"#utility.yul\":957:984   */\n      tag_98\n        /* \"#utility.yul\":979:983   */\n      dup3\n        /* \"#utility.yul\":957:984   */\n      tag_55\n      jump\t// in\n    tag_98:\n        /* \"#utility.yul\":949:955   */\n      dup2\n        /* \"#utility.yul\":945:985   */\n      add\n        /* \"#utility.yul\":1087:1093   */\n      dup2\n        /* \"#utility.yul\":1075:1085   */\n      dup2\n        /* \"#utility.yul\":1072:1094   */\n      lt\n        /* \"#utility.yul\":1051:1069   */\n      0xffffffffffffffff\n        /* \"#utility.yul\":1039:1049   */\n      dup3\n        /* \"#utility.yul\":1036:1070   */\n      gt\n        /* \"#utility.yul\":1033:1095   */\n      or\n        /* \"#utility.yul\":1030:1118   */\n      iszero\n      tag_99\n      jumpi\n        /* \"#utility.yul\":1098:1116   */\n      tag_100\n      tag_56\n      jump\t// in\n    tag_100:\n        /* \"#utility.yul\":1030:1118   */\n    tag_99:\n        /* \"#utility.yul\":1138:1148   */\n      dup1\n        /* \"#utility.yul\":1134:1136   */\n      0x40\n        /* \"#utility.yul\":1127:1149   */\n      mstore\n        /* \"#utility.yul\":917:1155   */\n      pop\n        /* \"#utility.yul\":874:1155   */\n      pop\n      pop\n      jump\t// out\n        /* \"#utility.yul\":1161:1290   */\n    tag_58:\n        /* \"#utility.yul\":1195:1201   */\n      0x00\n        /* \"#utility.yul\":1222:1242   */\n      tag_102\n      tag_50\n      jump\t// in\n    tag_102:\n        /* \"#utility.yul\":1212:1242   */\n      swap1\n      pop\n        /* \"#utility.yul\":1251:1284   */\n      tag_103\n        /* \"#utility.yul\":1279:1283   */\n      dup3\n        /* \"#utility.yul\":1271:1277   */\n      dup3\n        /* \"#utility.yul\":1251:1284   */\n      tag_57\n      jump\t// in\n    tag_103:\n        /* \"#utility.yul\":1161:1290   */\n      swap2\n      swap1\n      pop\n      jump\t// out\n        /* \"#utility.yul\":1296:1604   */\n    tag_59:\n        /* \"#utility.yul\":1358:1362   */\n      0x00\n        /* \"#utility.yul\":1448:1466   */\n      0xffffffffffffffff\n        /* \"#utility.yul\":1440:1446   */\n      dup3\n        /* \"#utility.yul\":1437:1467   */\n      gt\n        /* \"#utility.yul\":1434:1490   */\n      iszero\n      tag_105\n      jumpi\n        /* \"#utility.yul\":1470:1488   */\n      tag_106\n      tag_56\n      jump\t// in\n    tag_106:\n        /* \"#utility.yul\":1434:1490   */\n    tag_105:\n        /* \"#utility.yul\":1508:1537   */\n      tag_107\n        /* \"#utility.yul\":1530:1536   */\n      dup3\n        /* \"#utility.yul\":1508:1537   */\n      tag_55\n      jump\t// in\n    tag_107:\n        /* \"#utility.yul\":1500:1537   */\n      swap1\n      pop\n        /* \"#utility.yul\":1592:1596   */\n      0x20\n        /* \"#utility.yul\":1586:1590   */\n      dup2\n        /* \"#utility.yul\":1582:1597   */\n      add\n        /* \"#utility.yul\":1574:1597   */\n      swap1\n      pop\n        /* \"#utility.yul\":1296:1604   */\n      swap2\n      swap1\n      pop\n      jump\t// out\n        /* \"#utility.yul\":1610:1764   */\n    tag_60:\n        /* \"#utility.yul\":1694:1700   */\n      dup3\n        /* \"#utility.yul\":1689:1692   */\n      dup2\n        /* \"#utility.yul\":1684:1687   */\n      dup4\n        /* \"#utility.yul\":1671:1701   */\n      calldatacopy\n        /* \"#utility.yul\":1756:1757   */\n      0x00\n        /* \"#utility.yul\":1747:1753   */\n      dup4\n        /* \"#utility.yul\":1742:1745   */\n      dup4\n        /* \"#utility.yul\":1738:1754   */\n      add\n        /* \"#utility.yul\":1731:1758   */\n      mstore\n        /* \"#utility.yul\":1610:1764   */\n      pop\n      pop\n      pop\n      jump\t// out\n        /* \"#utility.yul\":1770:2182   */\n    tag_61:\n        /* \"#utility.yul\":1848:1853   */\n      0x00\n        /* \"#utility.yul\":1873:1939   */\n      tag_110\n        /* \"#utility.yul\":1889:1938   */\n      tag_111\n        /* \"#utility.yul\":1931:1937   */\n      dup5\n        /* \"#utility.yul\":1889:1938   */\n      tag_59\n      jump\t// in\n    tag_111:\n        /* \"#utility.yul\":1873:1939   */\n      tag_58\n      jump\t// in\n    tag_110:\n        /* \"#utility.yul\":1864:1939   */\n      swap1\n      pop\n        /* \"#utility.yul\":1962:1968   */\n      dup3\n        /* \"#utility.yul\":1955:1960   */\n      dup2\n        /* \"#utility.yul\":1948:1969   */\n      mstore\n        /* \"#utility.yul\":2000:2004   */\n      0x20\n        /* \"#utility.yul\":1993:1998   */\n      dup2\n        /* \"#utility.yul\":1989:2005   */\n      add\n        /* \"#utility.yul\":2038:2041   */\n      dup5\n        /* \"#utility.yul\":2029:2035   */\n      dup5\n        /* \"#utility.yul\":2024:2027   */\n      dup5\n        /* \"#utility.yul\":2020:2036   */\n      add\n        /* \"#utility.yul\":2017:2042   */\n      gt\n        /* \"#utility.yul\":2014:2126   */\n      iszero\n      tag_112\n      jumpi\n        /* \"#utility.yul\":2045:2124   */\n      tag_113\n      tag_54\n      jump\t// in\n    tag_113:\n        /* \"#utility.yul\":2014:2126   */\n    tag_112:\n        /* \"#utility.yul\":2135:2176   */\n      tag_114\n        /* \"#utility.yul\":2169:2175   */\n      dup5\n        /* \"#utility.yul\":2164:2167   */\n      dup3\n        /* \"#utility.yul\":2159:2162   */\n      dup6\n        /* \"#utility.yul\":2135:2176   */\n      tag_60\n      jump\t// in\n    tag_114:\n        /* \"#utility.yul\":1854:2182   */\n      pop\n        /* \"#utility.yul\":1770:2182   */\n      swap4\n      swap3\n      pop\n      pop\n      pop\n      jump\t// out\n        /* \"#utility.yul\":2202:2542   */\n    tag_62:\n        /* \"#utility.yul\":2258:2263   */\n      0x00\n        /* \"#utility.yul\":2307:2310   */\n      dup3\n        /* \"#utility.yul\":2300:2304   */\n      0x1f\n        /* \"#utility.yul\":2292:2298   */\n      dup4\n        /* \"#utility.yul\":2288:2305   */\n      add\n        /* \"#utility.yul\":2284:2311   */\n      slt\n        /* \"#utility.yul\":2274:2396   */\n      tag_116\n      jumpi\n        /* \"#utility.yul\":2315:2394   */\n      tag_117\n      tag_53\n      jump\t// in\n    tag_117:\n        /* \"#utility.yul\":2274:2396   */\n    tag_116:\n        /* \"#utility.yul\":2432:2438   */\n      dup2\n        /* \"#utility.yul\":2419:2439   */\n      calldataload\n        /* \"#utility.yul\":2457:2536   */\n      tag_118\n        /* \"#utility.yul\":2532:2535   */\n      dup5\n        /* \"#utility.yul\":2524:2530   */\n      dup3\n        /* \"#utility.yul\":2517:2521   */\n      0x20\n        /* \"#utility.yul\":2509:2515   */\n      dup7\n        /* \"#utility.yul\":2505:2522   */\n      add\n        /* \"#utility.yul\":2457:2536   */\n      tag_61\n      jump\t// in\n    tag_118:\n        /* \"#utility.yul\":2448:2536   */\n      swap2\n      pop\n        /* \"#utility.yul\":2264:2542   */\n      pop\n        /* \"#utility.yul\":2202:2542   */\n      swap3\n      swap2\n      pop\n      pop\n      jump\t// out\n        /* \"#utility.yul\":2548:3057   */\n    tag_11:\n        /* \"#utility.yul\":2617:2623   */\n      0x00\n        /* \"#utility.yul\":2666:2668   */\n      0x20\n        /* \"#utility.yul\":2654:2663   */\n      dup3\n        /* \"#utility.yul\":2645:2652   */\n      dup5\n        /* \"#utility.yul\":2641:2664   */\n      sub\n        /* \"#utility.yul\":2637:2669   */\n      slt\n        /* \"#utility.yul\":2634:2753   */\n      iszero\n      tag_120\n      jumpi\n        /* \"#utility.yul\":2672:2751   */\n      tag_121\n      tag_51\n      jump\t// in\n    tag_121:\n        /* \"#utility.yul\":2634:2753   */\n    tag_120:\n        /* \"#utility.yul\":2820:2821   */\n      0x00\n        /* \"#utility.yul\":2809:2818   */\n      dup3\n        /* \"#utility.yul\":2805:2822   */\n      add\n        /* \"#utility.yul\":2792:2823   */\n      calldataload\n        /* \"#utility.yul\":2850:2868   */\n      0xffffffffffffffff\n        /* \"#utility.yul\":2842:2848   */\n      dup2\n        /* \"#utility.yul\":2839:2869   */\n      gt\n        /* \"#utility.yul\":2836:2953   */\n      iszero\n      tag_122\n      jumpi\n        /* \"#utility.yul\":2872:2951   */\n      tag_123\n      tag_52\n      jump\t// in\n    tag_123:\n        /* \"#utility.yul\":2836:2953   */\n    tag_122:\n        /* \"#utility.yul\":2977:3040   */\n      tag_124\n        /* \"#utility.yul\":3032:3039   */\n      dup5\n        /* \"#utility.yul\":3023:3029   */\n      dup3\n        /* \"#utility.yul\":3012:3021   */\n      dup6\n        /* \"#utility.yul\":3008:3030   */\n      add\n        /* \"#utility.yul\":2977:3040   */\n      tag_62\n      jump\t// in\n    tag_124:\n        /* \"#utility.yul\":2967:3040   */\n      swap2\n      pop\n        /* \"#utility.yul\":2763:3050   */\n      pop\n        /* \"#utility.yul\":2548:3057   */\n      swap3\n      swap2\n      pop\n      pop\n      jump\t// out\n        /* \"#utility.yul\":3063:3189   */\n    tag_63:\n        /* \"#utility.yul\":3100:3107   */\n      0x00\n        /* \"#utility.yul\":3140:3182   */\n      0xffffffffffffffffffffffffffffffffffffffff\n        /* \"#utility.yul\":3133:3138   */\n      dup3\n        /* \"#utility.yul\":3129:3183   */\n      and\n        /* \"#utility.yul\":3118:3183   */\n      swap1\n      pop\n        /* \"#utility.yul\":3063:3189   */\n      swap2\n      swap1\n      pop\n      jump\t// out\n        /* \"#utility.yul\":3195:3291   */\n    tag_64:\n        /* \"#utility.yul\":3232:3239   */\n      0x00\n        /* \"#utility.yul\":3261:3285   */\n      tag_127\n        /* \"#utility.yul\":3279:3284   */\n      dup3\n        /* \"#utility.yul\":3261:3285   */\n      tag_63\n      jump\t// in\n    tag_127:\n        /* \"#utility.yul\":3250:3285   */\n      swap1\n      pop\n        /* \"#utility.yul\":3195:3291   */\n      swap2\n      swap1\n      pop\n      jump\t// out\n        /* \"#utility.yul\":3297:3415   */\n    tag_65:\n        /* \"#utility.yul\":3384:3408   */\n      tag_129\n        /* \"#utility.yul\":3402:3407   */\n      dup2\n        /* \"#utility.yul\":3384:3408   */\n      tag_64\n      jump\t// in\n    tag_129:\n        /* \"#utility.yul\":3379:3382   */\n      dup3\n        /* \"#utility.yul\":3372:3409   */\n      mstore\n        /* \"#utility.yul\":3297:3415   */\n      pop\n      pop\n      jump\t// out\n        /* \"#utility.yul\":3421:3643   */\n    tag_16:\n        /* \"#utility.yul\":3514:3518   */\n      0x00\n        /* \"#utility.yul\":3552:3554   */\n      0x20\n        /* \"#utility.yul\":3541:3550   */\n      dup3\n        /* \"#utility.yul\":3537:3555   */\n      add\n        /* \"#utility.yul\":3529:3555   */\n      swap1\n      pop\n        /* \"#utility.yul\":3565:3636   */\n      tag_131\n        /* \"#utility.yul\":3633:3634   */\n      0x00\n        /* \"#utility.yul\":3622:3631   */\n      dup4\n        /* \"#utility.yul\":3618:3635   */\n      add\n        /* \"#utility.yul\":3609:3615   */\n      dup5\n        /* \"#utility.yul\":3565:3636   */\n      tag_65\n      jump\t// in\n    tag_131:\n        /* \"#utility.yul\":3421:3643   */\n      swap3\n      swap2\n      pop\n      pop\n      jump\t// out\n        /* \"#utility.yul\":3649:3726   */\n    tag_66:\n        /* \"#utility.yul\":3686:3693   */\n      0x00\n        /* \"#utility.yul\":3715:3720   */\n      dup2\n        /* \"#utility.yul\":3704:3720   */\n      swap1\n      pop\n        /* \"#utility.yul\":3649:3726   */\n      swap2\n      swap1\n      pop\n      jump\t// out\n        /* \"#utility.yul\":3732:3850   */\n    tag_67:\n        /* \"#utility.yul\":3819:3843   */\n      tag_134\n        /* \"#utility.yul\":3837:3842   */\n      dup2\n        /* \"#utility.yul\":3819:3843   */\n      tag_66\n      jump\t// in\n    tag_134:\n        /* \"#utility.yul\":3814:3817   */\n      dup3\n        /* \"#utility.yul\":3807:3844   */\n      mstore\n        /* \"#utility.yul\":3732:3850   */\n      pop\n      pop\n      jump\t// out\n        /* \"#utility.yul\":3856:4078   */\n    tag_20:\n        /* \"#utility.yul\":3949:3953   */\n      0x00\n        /* \"#utility.yul\":3987:3989   */\n      0x20\n        /* \"#utility.yul\":3976:3985   */\n      dup3\n        /* \"#utility.yul\":3972:3990   */\n      add\n        /* \"#utility.yul\":3964:3990   */\n      swap1\n      pop\n        /* \"#utility.yul\":4000:4071   */\n      tag_136\n        /* \"#utility.yul\":4068:4069   */\n      0x00\n        /* \"#utility.yul\":4057:4066   */\n      dup4\n        /* \"#utility.yul\":4053:4070   */\n      add\n        /* \"#utility.yul\":4044:4050   */\n      dup5\n        /* \"#utility.yul\":4000:4071   */\n      tag_67\n      jump\t// in\n    tag_136:\n        /* \"#utility.yul\":3856:4078   */\n      swap3\n      swap2\n      pop\n      pop\n      jump\t// out\n        /* \"#utility.yul\":4084:4183   */\n    tag_68:\n        /* \"#utility.yul\":4136:4142   */\n      0x00\n        /* \"#utility.yul\":4170:4175   */\n      dup2\n        /* \"#utility.yul\":4164:4176   */\n      mload\n        /* \"#utility.yul\":4154:4176   */\n      swap1\n      pop\n        /* \"#utility.yul\":4084:4183   */\n      swap2\n      swap1\n      pop\n      jump\t// out\n        /* \"#utility.yul\":4189:4358   */\n    tag_69:\n        /* \"#utility.yul\":4273:4284   */\n      0x00\n        /* \"#utility.yul\":4307:4313   */\n      dup3\n        /* \"#utility.yul\":4302:4305   */\n      dup3\n        /* \"#utility.yul\":4295:4314   */\n      mstore\n        /* \"#utility.yul\":4347:4351   */\n      0x20\n        /* \"#utility.yul\":4342:4345   */\n      dup3\n        /* \"#utility.yul\":4338:4352   */\n      add\n        /* \"#utility.yul\":4323:4352   */\n      swap1\n      pop\n        /* \"#utility.yul\":4189:4358   */\n      swap3\n      swap2\n      pop\n      pop\n      jump\t// out\n        /* \"#utility.yul\":4364:4671   */\n    tag_70:\n        /* \"#utility.yul\":4432:4433   */\n      0x00\n        /* \"#utility.yul\":4442:4555   */\n    tag_140:\n        /* \"#utility.yul\":4456:4462   */\n      dup4\n        /* \"#utility.yul\":4453:4454   */\n      dup2\n        /* \"#utility.yul\":4450:4463   */\n      lt\n        /* \"#utility.yul\":4442:4555   */\n      iszero\n      tag_142\n      jumpi\n        /* \"#utility.yul\":4541:4542   */\n      dup1\n        /* \"#utility.yul\":4536:4539   */\n      dup3\n        /* \"#utility.yul\":4532:4543   */\n      add\n        /* \"#utility.yul\":4526:4544   */\n      mload\n        /* \"#utility.yul\":4522:4523   */\n      dup2\n        /* \"#utility.yul\":4517:4520   */\n      dup5\n        /* \"#utility.yul\":4513:4524   */\n      add\n        /* \"#utility.yul\":4506:4545   */\n      mstore\n        /* \"#utility.yul\":4478:4480   */\n      0x20\n        /* \"#utility.yul\":4475:4476   */\n      dup2\n        /* \"#utility.yul\":4471:4481   */\n      add\n        /* \"#utility.yul\":4466:4481   */\n      swap1\n      pop\n        /* \"#utility.yul\":4442:4555   */\n      jump(tag_140)\n    tag_142:\n        /* \"#utility.yul\":4573:4579   */\n      dup4\n        /* \"#utility.yul\":4570:4571   */\n      dup2\n        /* \"#utility.yul\":4567:4580   */\n      gt\n        /* \"#utility.yul\":4564:4665   */\n      iszero\n      tag_143\n      jumpi\n        /* \"#utility.yul\":4653:4654   */\n      0x00\n        /* \"#utility.yul\":4644:4650   */\n      dup5\n        /* \"#utility.yul\":4639:4642   */\n      dup5\n        /* \"#utility.yul\":4635:4651   */\n      add\n        /* \"#utility.yul\":4628:4655   */\n      mstore\n        /* \"#utility.yul\":4564:4665   */\n    tag_143:\n        /* \"#utility.yul\":4413:4671   */\n      pop\n        /* \"#utility.yul\":4364:4671   */\n      pop\n      pop\n      pop\n      jump\t// out\n        /* \"#utility.yul\":4677:5041   */\n    tag_71:\n        /* \"#utility.yul\":4765:4768   */\n      0x00\n        /* \"#utility.yul\":4793:4832   */\n      tag_145\n        /* \"#utility.yul\":4826:4831   */\n      dup3\n        /* \"#utility.yul\":4793:4832   */\n      tag_68\n      jump\t// in\n    tag_145:\n        /* \"#utility.yul\":4848:4919   */\n      tag_146\n        /* \"#utility.yul\":4912:4918   */\n      dup2\n        /* \"#utility.yul\":4907:4910   */\n      dup6\n        /* \"#utility.yul\":4848:4919   */\n      tag_69\n      jump\t// in\n    tag_146:\n        /* \"#utility.yul\":4841:4919   */\n      swap4\n      pop\n        /* \"#utility.yul\":4928:4980   */\n      tag_147\n        /* \"#utility.yul\":4973:4979   */\n      dup2\n        /* \"#utility.yul\":4968:4971   */\n      dup6\n        /* \"#utility.yul\":4961:4965   */\n      0x20\n        /* \"#utility.yul\":4954:4959   */\n      dup7\n        /* \"#utility.yul\":4950:4966   */\n      add\n        /* \"#utility.yul\":4928:4980   */\n      tag_70\n      jump\t// in\n    tag_147:\n        /* \"#utility.yul\":5005:5034   */\n      tag_148\n        /* \"#utility.yul\":5027:5033   */\n      dup2\n        /* \"#utility.yul\":5005:5034   */\n      tag_55\n      jump\t// in\n    tag_148:\n        /* \"#utility.yul\":5000:5003   */\n      dup5\n        /* \"#utility.yul\":4996:5035   */\n      add\n        /* \"#utility.yul\":4989:5035   */\n      swap2\n      pop\n        /* \"#utility.yul\":4769:5041   */\n      pop\n        /* \"#utility.yul\":4677:5041   */\n      swap3\n      swap2\n      pop\n      pop\n      jump\t// out\n        /* \"#utility.yul\":5047:5360   */\n    tag_24:\n        /* \"#utility.yul\":5160:5164   */\n      0x00\n        /* \"#utility.yul\":5198:5200   */\n      0x20\n        /* \"#utility.yul\":5187:5196   */\n      dup3\n        /* \"#utility.yul\":5183:5201   */\n      add\n        /* \"#utility.yul\":5175:5201   */\n      swap1\n      pop\n        /* \"#utility.yul\":5247:5256   */\n      dup2\n        /* \"#utility.yul\":5241:5245   */\n      dup2\n        /* \"#utility.yul\":5237:5257   */\n      sub\n        /* \"#utility.yul\":5233:5234   */\n      0x00\n        /* \"#utility.yul\":5222:5231   */\n      dup4\n        /* \"#utility.yul\":5218:5235   */\n      add\n        /* \"#utility.yul\":5211:5258   */\n      mstore\n        /* \"#utility.yul\":5275:5353   */\n      tag_150\n        /* \"#utility.yul\":5348:5352   */\n      dup2\n        /* \"#utility.yul\":5339:5345   */\n      dup5\n        /* \"#utility.yul\":5275:5353   */\n      tag_71\n      jump\t// in\n    tag_150:\n        /* \"#utility.yul\":5267:5353   */\n      swap1\n      pop\n        /* \"#utility.yul\":5047:5360   */\n      swap3\n      swap2\n      pop\n      pop\n      jump\t// out\n        /* \"#utility.yul\":5366:5546   */\n    tag_72:\n        /* \"#utility.yul\":5414:5491   */\n      0x4e487b7100000000000000000000000000000000000000000000000000000000\n        /* \"#utility.yul\":5411:5412   */\n      0x00\n        /* \"#utility.yul\":5404:5492   */\n      mstore\n        /* \"#utility.yul\":5511:5515   */\n      0x22\n        /* \"#utility.yul\":5508:5509   */\n      0x04\n        /* \"#utility.yul\":5501:5516   */\n      mstore\n        /* \"#utility.yul\":5535:5539   */\n      0x24\n        /* \"#utility.yul\":5532:5533   */\n      0x00\n        /* \"#utility.yul\":5525:5540   */\n      revert\n        /* \"#utility.yul\":5552:5872   */\n    tag_39:\n        /* \"#utility.yul\":5596:5602   */\n      0x00\n        /* \"#utility.yul\":5633:5634   */\n      0x02\n        /* \"#utility.yul\":5627:5631   */\n      dup3\n        /* \"#utility.yul\":5623:5635   */\n      div\n        /* \"#utility.yul\":5613:5635   */\n      swap1\n      pop\n        /* \"#utility.yul\":5680:5681   */\n      0x01\n        /* \"#utility.yul\":5674:5678   */\n      dup3\n        /* \"#utility.yul\":5670:5682   */\n      and\n        /* \"#utility.yul\":5701:5719   */\n      dup1\n        /* \"#utility.yul\":5691:5772   */\n      tag_153\n      jumpi\n        /* \"#utility.yul\":5757:5761   */\n      0x7f\n        /* \"#utility.yul\":5749:5755   */\n      dup3\n        /* \"#utility.yul\":5745:5762   */\n      and\n        /* \"#utility.yul\":5735:5762   */\n      swap2\n      pop\n        /* \"#utility.yul\":5691:5772   */\n    tag_153:\n        /* \"#utility.yul\":5819:5821   */\n      0x20\n        /* \"#utility.yul\":5811:5817   */\n      dup3\n        /* \"#utility.yul\":5808:5822   */\n      lt\n        /* \"#utility.yul\":5788:5806   */\n      dup2\n        /* \"#utility.yul\":5785:5823   */\n      sub\n        /* \"#utility.yul\":5782:5866   */\n      tag_154\n      jumpi\n        /* \"#utility.yul\":5838:5856   */\n      tag_155\n      tag_72\n      jump\t// in\n    tag_155:\n        /* \"#utility.yul\":5782:5866   */\n    tag_154:\n        /* \"#utility.yul\":5603:5872   */\n      pop\n        /* \"#utility.yul\":5552:5872   */\n      swap2\n      swap1\n      pop\n      jump\t// out\n        /* \"#utility.yul\":5878:6019   */\n    tag_73:\n        /* \"#utility.yul\":5927:5931   */\n      0x00\n        /* \"#utility.yul\":5950:5953   */\n      dup2\n        /* \"#utility.yul\":5942:5953   */\n      swap1\n      pop\n        /* \"#utility.yul\":5973:5976   */\n      dup2\n        /* \"#utility.yul\":5970:5971   */\n      0x00\n        /* \"#utility.yul\":5963:5977   */\n      mstore\n        /* \"#utility.yul\":6007:6011   */\n      0x20\n        /* \"#utility.yul\":6004:6005   */\n      0x00\n        /* \"#utility.yul\":5994:6012   */\n      keccak256\n        /* \"#utility.yul\":5986:6012   */\n      swap1\n      pop\n        /* \"#utility.yul\":5878:6019   */\n      swap2\n      swap1\n      pop\n      jump\t// out\n        /* \"#utility.yul\":6025:6118   */\n    tag_74:\n        /* \"#utility.yul\":6062:6068   */\n      0x00\n        /* \"#utility.yul\":6109:6111   */\n      0x20\n        /* \"#utility.yul\":6104:6106   */\n      0x1f\n        /* \"#utility.yul\":6097:6102   */\n      dup4\n        /* \"#utility.yul\":6093:6107   */\n      add\n        /* \"#utility.yul\":6089:6112   */\n      div\n        /* \"#utility.yul\":6079:6112   */\n      swap1\n      pop\n        /* \"#utility.yul\":6025:6118   */\n      swap2\n      swap1\n      pop\n      jump\t// out\n        /* \"#utility.yul\":6124:6231   */\n    tag_75:\n        /* \"#utility.yul\":6168:6176   */\n      0x00\n        /* \"#utility.yul\":6218:6223   */\n      dup3\n        /* \"#utility.yul\":6212:6216   */\n      dup3\n        /* \"#utility.yul\":6208:6224   */\n      shl\n        /* \"#utility.yul\":6187:6224   */\n      swap1\n      pop\n        /* \"#utility.yul\":6124:6231   */\n      swap3\n      swap2\n      pop\n      pop\n      jump\t// out\n        /* \"#utility.yul\":6237:6630   */\n    tag_76:\n        /* \"#utility.yul\":6306:6312   */\n      0x00\n        /* \"#utility.yul\":6356:6357   */\n      0x08\n        /* \"#utility.yul\":6344:6354   */\n      dup4\n        /* \"#utility.yul\":6340:6358   */\n      mul\n        /* \"#utility.yul\":6379:6476   */\n      tag_160\n        /* \"#utility.yul\":6409:6475   */\n      0xffffffffffffffffffffffffffffffffffffffffffffffffffffffffffffffff\n        /* \"#utility.yul\":6398:6407   */\n      dup3\n        /* \"#utility.yul\":6379:6476   */\n      tag_75\n      jump\t// in\n    tag_160:\n        /* \"#utility.yul\":6497:6536   */\n      tag_161\n        /* \"#utility.yul\":6527:6535   */\n      dup7\n        /* \"#utility.yul\":6516:6525   */\n      dup4\n        /* \"#utility.yul\":6497:6536   */\n      tag_75\n      jump\t// in\n    tag_161:\n        /* \"#utility.yul\":6485:6536   */\n      swap6\n      pop\n        /* \"#utility.yul\":6569:6573   */\n      dup1\n        /* \"#utility.yul\":6565:6574   */\n      not\n        /* \"#utility.yul\":6558:6563   */\n      dup5\n        /* \"#utility.yul\":6554:6575   */\n      and\n        /* \"#utility.yul\":6545:6575   */\n      swap4\n      pop\n        /* \"#utility.yul\":6618:6622   */\n      dup1\n        /* \"#utility.yul\":6608:6616   */\n      dup7\n        /* \"#utility.yul\":6604:6623   */\n      and\n        /* \"#utility.yul\":6597:6602   */\n      dup5\n        /* \"#utility.yul\":6594:6624   */\n      or\n        /* \"#utility.yul\":6584:6624   */\n      swap3\n      pop\n        /* \"#utility.yul\":6313:6630   */\n      pop\n      pop\n        /* \"#utility.yul\":6237:6630   */\n      swap4\n      swap3\n      pop\n      pop\n      pop\n      jump\t// out\n        /* \"#utility.yul\":6636:6696   */\n    tag_77:\n        /* \"#utility.yul\":6664:6667   */\n      0x00\n        /* \"#utility.yul\":6685:6690   */\n      dup2\n        /* \"#utility.yul\":6678:6690   */\n      swap1\n      pop\n        /* \"#utility.yul\":6636:6696   */\n      swap2\n      swap1\n      pop\n      jump\t// out\n        /* \"#utility.yul\":6702:6844   */\n    tag_78:\n        /* \"#utility.yul\":6752:6761   */\n      0x00\n        /* \"#utility.yul\":6785:6838   */\n      tag_164\n        /* \"#utility.yul\":6803:6837   */\n      tag_165\n        /* \"#utility.yul\":6812:6836   */\n      tag_166\n        /* \"#utility.yul\":6830:6835   */\n      dup5\n        /* \"#utility.yul\":6812:6836   */\n      tag_66\n      jump\t// in\n    tag_166:\n        /* \"#utility.yul\":6803:6837   */\n      tag_77\n      jump\t// in\n    tag_165:\n        /* \"#utility.yul\":6785:6838   */\n      tag_66\n      jump\t// in\n    tag_164:\n        /* \"#utility.yul\":6772:6838   */\n      swap1\n      pop\n        /* \"#utility.yul\":6702:6844   */\n      swap2\n      swap1\n      pop\n      jump\t// out\n        /* \"#utility.yul\":6850:6925   */\n    tag_79:\n        /* \"#utility.yul\":6893:6896   */\n      0x00\n        /* \"#utility.yul\":6914:6919   */\n      dup2\n        /* \"#utility.yul\":6907:6919   */\n      swap1\n      pop\n        /* \"#utility.yul\":6850:6925   */\n      swap2\n      swap1\n      pop\n      jump\t// out\n        /* \"#utility.yul\":6931:7200   */\n    tag_80:\n        /* \"#utility.yul\":7041:7080   */\n      tag_169\n        /* \"#utility.yul\":7072:7079   */\n      dup4\n        /* \"#utility.yul\":7041:7080   */\n      tag_78\n      jump\t// in\n    tag_169:\n        /* \"#utility.yul\":7102:7193   */\n      tag_170\n        /* \"#utility.yul\":7151:7192   */\n      tag_171\n        /* \"#utility.yul\":7175:7191   */\n      dup3\n        /* \"#utility.yul\":7151:7192   */\n      tag_79\n      jump\t// in\n    tag_171:\n        /* \"#utility.yul\":7143:7149   */\n      dup5\n        /* \"#utility.yul\":7136:7140   */\n      dup5\n        /* \"#utility.yul\":7130:7141   */\n      sload\n        /* \"#utility.yul\":7102:7193   */\n      tag_76\n      jump\t// in\n    tag_170:\n        /* \"#utility.yul\":7096:7100   */\n      dup3\n        /* \"#utility.yul\":7089:7194   */\n      sstore\n        /* \"#utility.yul\":7007:7200   */\n      pop\n        /* \"#utility.yul\":6931:7200   */\n      pop\n      pop\n      pop\n      jump\t// out\n        /* \"#utility.yul\":7206:7279   */\n    tag_81:\n        /* \"#utility.yul\":7251:7254   */\n      0x00\n        /* \"#utility.yul\":7206:7279   */\n      swap1\n      jump\t// out\n        /* \"#utility.yul\":7285:7474   */\n    tag_82:\n        /* \"#utility.yul\":7362:7394   */\n      tag_174\n      tag_81\n      jump\t// in\n    tag_174:\n        /* \"#utility.yul\":7403:7468   */\n      tag_175\n        /* \"#utility.yul\":7461:7467   */\n      dup2\n        /* \"#utility.yul\":7453:7459   */\n      dup5\n        /* \"#utility.yul\":7447:7451   */\n      dup5\n        /* \"#utility.yul\":7403:7468   */\n      tag_80\n      jump\t// in\n    tag_175:\n        /* \"#utility.yul\":7338:7474   */\n      pop\n        /* \"#utility.yul\":7285:7474   */\n      pop\n      pop\n      jump\t// out\n        /* \"#utility.yul\":7480:7666   */\n    tag_83:\n        /* \"#utility.yul\":7540:7660   */\n    tag_177:\n        /* \"#utility.yul\":7557:7560   */\n      dup2\n        /* \"#utility.yul\":7550:7555   */\n      dup2\n        /* \"#utility.yul\":7547:7561   */\n      lt\n        /* \"#utility.yul\":7540:7660   */\n      iszero\n      tag_179\n      jumpi\n        /* \"#utility.yul\":7611:7650   */\n      tag_180\n        /* \"#utility.yul\":7648:7649   */\n      0x00\n        /* \"#utility.yul\":7641:7646   */\n      dup3\n        /* \"#utility.yul\":7611:7650   */\n      tag_82\n      jump\t// in\n    tag_180:\n        /* \"#utility.yul\":7584:7585   */\n      0x01\n        /* \"#utility.yul\":7577:7582   */\n      dup2\n        /* \"#utility.yul\":7573:7586   */\n      add\n        /* \"#utility.yul\":7564:7586   */\n      swap1\n      pop\n        /* \"#utility.yul\":7540:7660   */\n      jump(tag_177)\n    tag_179:\n        /* \"#utility.yul\":7480:7666   */\n      pop\n      pop\n      jump\t// out\n        /* \"#utility.yul\":7672:8215   */\n    tag_84:\n        /* \"#utility.yul\":7773:7775   */\n      0x1f\n        /* \"#utility.yul\":7768:7771   */\n      dup3\n        /* \"#utility.yul\":7765:7776   */\n      gt\n        /* \"#utility.yul\":7762:8208   */\n      iszero\n      tag_182\n      jumpi\n        /* \"#utility.yul\":7807:7845   */\n      tag_183\n        /* \"#utility.yul\":7839:7844   */\n      dup2\n        /* \"#utility.yul\":7807:7845   */\n      tag_73\n      jump\t// in\n    tag_183:\n        /* \"#utility.yul\":7891:7920   */\n      tag_184\n        /* \"#utility.yul\":7909:7919   */\n      dup5\n        /* \"#utility.yul\":7891:7920   */\n      tag_74\n      jump\t// in\n    tag_184:\n        /* \"#utility.yul\":7881:7889   */\n      dup2\n        /* \"#utility.yul\":7877:7921   */\n      add\n        /* \"#utility.yul\":8074:8076   */\n      0x20\n        /* \"#utility.yul\":8062:8072   */\n      dup6\n        /* \"#utility.yul\":8059:8077   */\n      lt\n        /* \"#utility.yul\":8056:8105   */\n      iszero\n      tag_185\n      jumpi\n        /* \"#utility.yul\":8095:8103   */\n      dup2\n        /* \"#utility.yul\":8080:8103   */\n      swap1\n      pop\n        /* \"#utility.yul\":8056:8105   */\n    tag_185:\n        /* \"#utility.yul\":8118:8198   */\n      tag_186\n        /* \"#utility.yul\":8174:8196   */\n      tag_187\n        /* \"#utility.yul\":8192:8195   */\n      dup6\n        /* \"#utility.yul\":8174:8196   */\n      tag_74\n      jump\t// in\n    tag_187:\n        /* \"#utility.yul\":8164:8172   */\n      dup4\n        /* \"#utility.yul\":8160:8197   */\n      add\n        /* \"#utility.yul\":8147:8158   */\n      dup3\n        /* \"#utility.yul\":8118:8198   */\n      tag_83\n      jump\t// in\n    tag_186:\n        /* \"#utility.yul\":7777:8208   */\n      pop\n      pop\n        /* \"#utility.yul\":7762:8208   */\n    tag_182:\n        /* \"#utility.yul\":7672:8215   */\n      pop\n      pop\n      pop\n      jump\t// out\n        /* \"#utility.yul\":8221:8338   */\n    tag_85:\n        /* \"#utility.yul\":8275:8283   */\n      0x00\n        /* \"#utility.yul\":8325:8330   */\n      dup3\n        /* \"#utility.yul\":8319:8323   */\n      dup3\n        /* \"#utility.yul\":8315:8331   */\n      shr\n        /* \"#utility.yul\":8294:8331   */\n      swap1\n      pop\n        /* \"#utility.yul\":8221:8338   */\n      swap3\n      swap2\n      pop\n      pop\n      jump\t// out\n        /* \"#utility.yul\":8344:8513   */\n    tag_86:\n        /* \"#utility.yul\":8388:8394   */\n      0x00\n        /* \"#utility.yul\":8421:8472   */\n      tag_190\n        /* \"#utility.yul\":8469:8470   */\n      0x00\n        /* \"#utility.yul\":8465:8471   */\n      not\n        /* \"#utility.yul\":8457:8462   */\n      dup5\n        /* \"#utility.yul\":8454:8455   */\n      0x08\n        /* \"#utility.yul\":8450:8463   */\n      mul\n        /* \"#utility.yul\":8421:8472   */\n      tag_85\n      jump\t// in\n    tag_190:\n        /* \"#utility.yul\":8417:8473   */\n      not\n        /* \"#utility.yul\":8502:8506   */\n      dup1\n        /* \"#utility.yul\":8496:8500   */\n      dup4\n        /* \"#utility.yul\":8492:8507   */\n      and\n        /* \"#utility.yul\":8482:8507   */\n      swap2\n      pop\n        /* \"#utility.yul\":8395:8513   */\n      pop\n        /* \"#utility.yul\":8344:8513   */\n      swap3\n      swap2\n      pop\n      pop\n      jump\t// out\n        /* \"#utility.yul\":8518:8813   */\n    tag_87:\n        /* \"#utility.yul\":8594:8598   */\n      0x00\n        /* \"#utility.yul\":8740:8769   */\n      tag_192\n        /* \"#utility.yul\":8765:8768   */\n      dup4\n        /* \"#utility.yul\":8759:8763   */\n      dup4\n        /* \"#utility.yul\":8740:8769   */\n      tag_86\n      jump\t// in\n    tag_192:\n        /* \"#utility.yul\":8732:8769   */\n      swap2\n      pop\n        /* \"#utility.yul\":8802:8805   */\n      dup3\n        /* \"#utility.yul\":8799:8800   */\n      0x02\n        /* \"#utility.yul\":8795:8806   */\n      mul\n        /* \"#utility.yul\":8789:8793   */\n      dup3\n        /* \"#utility.yul\":8786:8807   */\n      or\n        /* \"#utility.yul\":8778:8807   */\n      swap1\n      pop\n        /* \"#utility.yul\":8518:8813   */\n      swap3\n      swap2\n      pop\n      pop\n      jump\t// out\n        /* \"#utility.yul\":8818:10213   */\n    tag_34:\n        /* \"#utility.yul\":8935:8972   */\n      tag_194\n        /* \"#utility.yul\":8968:8971   */\n      dup3\n        /* \"#utility.yul\":8935:8972   */\n      tag_68\n      jump\t// in\n    tag_194:\n        /* \"#utility.yul\":9037:9055   */\n      0xffffffffffffffff\n        /* \"#utility.yul\":9029:9035   */\n      dup2\n        /* \"#utility.yul\":9026:9056   */\n      gt\n        /* \"#utility.yul\":9023:9079   */\n      iszero\n      tag_195\n      jumpi\n        /* \"#utility.yul\":9059:9077   */\n      tag_196\n      tag_56\n      jump\t// in\n    tag_196:\n        /* \"#utility.yul\":9023:9079   */\n    tag_195:\n        /* \"#utility.yul\":9103:9141   */\n      tag_197\n        /* \"#utility.yul\":9135:9139   */\n      dup3\n        /* \"#utility.yul\":9129:9140   */\n      sload\n        /* \"#utility.yul\":9103:9141   */\n      tag_39\n      jump\t// in\n    tag_197:\n        /* \"#utility.yul\":9188:9255   */\n      tag_198\n        /* \"#utility.yul\":9248:9254   */\n      dup3\n        /* \"#utility.yul\":9240:9246   */\n      dup3\n        /* \"#utility.yul\":9234:9238   */\n      dup6\n        /* \"#utility.yul\":9188:9255   */\n      tag_84\n      jump\t// in\n    tag_198:\n        /* \"#utility.yul\":9282:9283   */\n      0x00\n        /* \"#utility.yul\":9306:9310   */\n      0x20\n        /* \"#utility.yul\":9293:9310   */\n      swap1\n      pop\n        /* \"#utility.yul\":9338:9340   */\n      0x1f\n        /* \"#utility.yul\":9330:9336   */\n      dup4\n        /* \"#utility.yul\":9327:9341   */\n      gt\n        /* \"#utility.yul\":9355:9356   */\n      0x01\n        /* \"#utility.yul\":9350:9968   */\n      dup2\n      eq\n      tag_200\n      jumpi\n        /* \"#utility.yul\":10012:10013   */\n      0x00\n        /* \"#utility.yul\":10029:10035   */\n      dup5\n        /* \"#utility.yul\":10026:10103   */\n      iszero\n      tag_201\n      jumpi\n        /* \"#utility.yul\":10078:10087   */\n      dup3\n        /* \"#utility.yul\":10073:10076   */\n      dup8\n        /* \"#utility.yul\":10069:10088   */\n      add\n        /* \"#utility.yul\":10063:10089   */\n      mload\n        /* \"#utility.yul\":10054:10089   */\n      swap1\n      pop\n        /* \"#utility.yul\":10026:10103   */\n    tag_201:\n        /* \"#utility.yul\":10129:10196   */\n      tag_202\n        /* \"#utility.yul\":10189:10195   */\n      dup6\n        /* \"#utility.yul\":10182:10187   */\n      dup3\n        /* \"#utility.yul\":10129:10196   */\n      tag_87\n      jump\t// in\n    tag_202:\n        /* \"#utility.yul\":10123:10127   */\n      dup7\n        /* \"#utility.yul\":10116:10197   */\n      sstore\n        /* \"#utility.yul\":9985:10207   */\n      pop\n        /* \"#utility.yul\":9320:10207   */\n      jump(tag_199)\n        /* \"#utility.yul\":9350:9968   */\n    tag_200:\n        /* \"#utility.yul\":9402:9406   */\n      0x1f\n        /* \"#utility.yul\":9398:9407   */\n      not\n        /* \"#utility.yul\":9390:9396   */\n      dup5\n        /* \"#utility.yul\":9386:9408   */\n      and\n        /* \"#utility.yul\":9436:9473   */\n      tag_203\n        /* \"#utility.yul\":9468:9472   */\n      dup7\n        /* \"#utility.yul\":9436:9473   */\n      tag_73\n      jump\t// in\n    tag_203:\n        /* \"#utility.yul\":9495:9496   */\n      0x00\n        /* \"#utility.yul\":9509:9717   */\n    tag_204:\n        /* \"#utility.yul\":9523:9530   */\n      dup3\n        /* \"#utility.yul\":9520:9521   */\n      dup2\n        /* \"#utility.yul\":9517:9531   */\n      lt\n        /* \"#utility.yul\":9509:9717   */\n      iszero\n      tag_206\n      jumpi\n        /* \"#utility.yul\":9602:9611   */\n      dup5\n        /* \"#utility.yul\":9597:9600   */\n      dup10\n        /* \"#utility.yul\":9593:9612   */\n      add\n        /* \"#utility.yul\":9587:9613   */\n      mload\n        /* \"#utility.yul\":9579:9585   */\n      dup3\n        /* \"#utility.yul\":9572:9614   */\n      sstore\n        /* \"#utility.yul\":9653:9654   */\n      0x01\n        /* \"#utility.yul\":9645:9651   */\n      dup3\n        /* \"#utility.yul\":9641:9655   */\n      add\n        /* \"#utility.yul\":9631:9655   */\n      swap2\n      pop\n        /* \"#utility.yul\":9700:9702   */\n      0x20\n        /* \"#utility.yul\":9689:9698   */\n      dup6\n        /* \"#utility.yul\":9685:9703   */\n      add\n        /* \"#utility.yul\":9672:9703   */\n      swap5\n      pop\n        /* \"#utility.yul\":9546:9550   */\n      0x20\n        /* \"#utility.yul\":9543:9544   */\n      dup2\n        /* \"#utility.yul\":9539:9551   */\n      add\n        /* \"#utility.yul\":9534:9551   */\n      swap1\n      pop\n        /* \"#utility.yul\":9509:9717   */\n      jump(tag_204)\n    tag_206:\n        /* \"#utility.yul\":9745:9751   */\n      dup7\n        /* \"#utility.yul\":9736:9743   */\n      dup4\n        /* \"#utility.yul\":9733:9752   */\n      lt\n        /* \"#utility.yul\":9730:9909   */\n      iszero\n      tag_207\n      jumpi\n        /* \"#utility.yul\":9803:9812   */\n      dup5\n        /* \"#utility.yul\":9798:9801   */\n      dup10\n        /* \"#utility.yul\":9794:9813   */\n      add\n        /* \"#utility.yul\":9788:9814   */\n      mload\n        /* \"#utility.yul\":9846:9894   */\n      tag_208\n        /* \"#utility.yul\":9888:9892   */\n      0x1f\n        /* \"#utility.yul\":9880:9886   */\n      dup10\n        /* \"#utility.yul\":9876:9893   */\n      and\n        /* \"#utility.yul\":9865:9874   */\n      dup3\n        /* \"#utility.yul\":9846:9894   */\n      tag_86\n      jump\t// in\n    tag_208:\n        /* \"#utility.yul\":9838:9844   */\n      dup4\n        /* \"#utility.yul\":9831:9895   */\n      sstore\n        /* \"#utility.yul\":9753:9909   */\n      pop\n        /* \"#utility.yul\":9730:9909   */\n    tag_207:\n        /* \"#utility.yul\":9955:9956   */\n      0x01\n        /* \"#utility.yul\":9951:9952   */\n      0x02\n        /* \"#utility.yul\":9943:9949   */\n      dup9\n        /* \"#utility.yul\":9939:9953   */\n      mul\n        /* \"#utility.yul\":9935:9957   */\n      add\n        /* \"#utility.yul\":9929:9933   */\n      dup9\n        /* \"#utility.yul\":9922:9958   */\n      sstore\n        /* \"#utility.yul\":9357:9968   */\n      pop\n      pop\n      pop\n        /* \"#utility.yul\":9320:10207   */\n    tag_199:\n      pop\n        /* \"#utility.yul\":8910:10213   */\n      pop\n      pop\n      pop\n        /* \"#utility.yul\":8818:10213   */\n      pop\n      pop\n      jump\t// out\n        /* \"#utility.yul\":10219:10399   */\n    tag_88:\n        /* \"#utility.yul\":10267:10344   */\n      0x4e487b7100000000000000000000000000000000000000000000000000000000\n        /* \"#utility.yul\":10264:10265   */\n      0x00\n        /* \"#utility.yul\":10257:10345   */\n      mstore\n        /* \"#utility.yul\":10364:10368   */\n      0x11\n        /* \"#utility.yul\":10361:10362   */\n      0x04\n        /* \"#utility.yul\":10354:10369   */\n      mstore\n        /* \"#utility.yul\":10388:10392   */\n      0x24\n        /* \"#utility.yul\":10385:10386   */\n      0x00\n        /* \"#utility.yul\":10378:10393   */\n      revert\n        /* \"#utility.yul\":10405:10638   */\n    tag_36:\n        /* \"#utility.yul\":10444:10447   */\n      0x00\n        /* \"#utility.yul\":10467:10491   */\n      tag_211\n        /* \"#utility.yul\":10485:10490   */\n      dup3\n        /* \"#utility.yul\":10467:10491   */\n      tag_66\n      jump\t// in\n    tag_211:\n        /* \"#utility.yul\":10458:10491   */\n      swap2\n      pop\n        /* \"#utility.yul\":10513:10579   */\n      0xffffffffffffffffffffffffffffffffffffffffffffffffffffffffffffffff\n        /* \"#utility.yul\":10506:10511   */\n      dup3\n        /* \"#utility.yul\":10503:10580   */\n      sub\n        /* \"#utility.yul\":10500:10603   */\n      tag_212\n      jumpi\n        /* \"#utility.yul\":10583:10601   */\n      tag_213\n      tag_88\n      jump\t// in\n    tag_213:\n        /* \"#utility.yul\":10500:10603   */\n    tag_212:\n        /* \"#utility.yul\":10630:10631   */\n      0x01\n        /* \"#utility.yul\":10623:10628   */\n      dup3\n        /* \"#utility.yul\":10619:10632   */\n      add\n        /* \"#utility.yul\":10612:10632   */\n      swap1\n      pop\n        /* \"#utility.yul\":10405:10638   */\n      swap2\n      swap1\n      pop\n      jump\t// out\n\n    auxdata: 0xa26469706673582212201d48cb3c310c9a66fd0860c57e4c90c9a3d2b64ac661297a9680d4f657062b4664736f6c634300080f0033\n}\n",
				"bytecode": {
					"linkReferences": {},
					"object": "60806040526040518060400160405280600c81526020017f48656c6c6f20576f726c64210000000000000000000000000000000000000000815250600090816200004a91906200031a565b503480156200005857600080fd5b5033600160006101000a81548173ffffffffffffffffffffffffffffffffffffffff021916908373ffffffffffffffffffffffffffffffffffffffff16021790555062000401565b600081519050919050565b7f4e487b7100000000000000000000000000000000000000000000000000000000600052604160045260246000fd5b7f4e487b7100000000000000000000000000000000000000000000000000000000600052602260045260246000fd5b600060028204905060018216806200012257607f821691505b602082108103620001385762000137620000da565b5b50919050565b60008190508160005260206000209050919050565b60006020601f8301049050919050565b600082821b905092915050565b600060088302620001a27fffffffffffffffffffffffffffffffffffffffffffffffffffffffffffffffff8262000163565b620001ae868362000163565b95508019841693508086168417925050509392505050565b6000819050919050565b6000819050919050565b6000620001fb620001f5620001ef84620001c6565b620001d0565b620001c6565b9050919050565b6000819050919050565b6200021783620001da565b6200022f620002268262000202565b84845462000170565b825550505050565b600090565b6200024662000237565b620002538184846200020c565b505050565b5b818110156200027b576200026f6000826200023c565b60018101905062000259565b5050565b601f821115620002ca5762000294816200013e565b6200029f8462000153565b81016020851015620002af578190505b620002c7620002be8562000153565b83018262000258565b50505b505050565b600082821c905092915050565b6000620002ef60001984600802620002cf565b1980831691505092915050565b60006200030a8383620002dc565b9150826002028217905092915050565b6200032582620000a0565b67ffffffffffffffff811115620003415762000340620000ab565b5b6200034d825462000109565b6200035a8282856200027f565b600060209050601f8311600181146200039257600084156200037d578287015190505b620003898582620002fc565b865550620003f9565b601f198416620003a2866200013e565b60005b82811015620003cc57848901518255600182019150602085019450602081019050620003a5565b86831015620003ec5784890151620003e8601f891682620002dc565b8355505b6001600288020188555050505b505050505050565b61095880620004116000396000f3fe608060405234801561001057600080fd5b50600436106100625760003560e01c8063368b8772146100675780638da5cb5b14610083578063a7c9d41a146100a1578063ce6d41de146100bf578063e333c8b8146100dd578063f3930a77146100fb575b600080fd5b610081600480360381019061007c919061044a565b610119565b005b61008b61019a565b60405161009891906104d4565b60405180910390f35b6100a96101c0565b6040516100b69190610508565b60405180910390f35b6100c76101c6565b6040516100d491906105ab565b60405180910390f35b6100e5610258565b6040516100f291906105ab565b60405180910390f35b6101036102e6565b6040516101109190610508565b60405180910390f35b600160009054906101000a900473ffffffffffffffffffffffffffffffffffffffff1673ffffffffffffffffffffffffffffffffffffffff163373ffffffffffffffffffffffffffffffffffffffff160361019757806000908161017d91906107d9565b5060026000815480929190610191906108da565b91905055505b50565b600160009054906101000a900473ffffffffffffffffffffffffffffffffffffffff1681565b60025481565b6060600080546101d5906105fc565b80601f0160208091040260200160405190810160405280929190818152602001828054610201906105fc565b801561024e5780601f106102235761010080835404028352916020019161024e565b820191906000526020600020905b81548152906001019060200180831161023157829003601f168201915b5050505050905090565b60008054610265906105fc565b80601f0160208091040260200160405190810160405280929190818152602001828054610291906105fc565b80156102de5780601f106102b3576101008083540402835291602001916102de565b820191906000526020600020905b8154815290600101906020018083116102c157829003601f168201915b505050505081565b6000600254905090565b6000604051905090565b600080fd5b600080fd5b600080fd5b600080fd5b6000601f19601f8301169050919050565b7f4e487b7100000000000000000000000000000000000000000000000000000000600052604160045260246000fd5b6103578261030e565b810181811067ffffffffffffffff821117156103765761037561031f565b5b80604052505050565b60006103896102f0565b9050610395828261034e565b919050565b600067ffffffffffffffff8211156103b5576103b461031f565b5b6103be8261030e565b9050602081019050919050565b82818337600083830152505050565b60006103ed6103e88461039a565b61037f565b90508281526020810184848401111561040957610408610309565b5b6104148482856103cb565b509392505050565b600082601f83011261043157610430610304565b5b81356104418482602086016103da565b91505092915050565b6000602082840312156104605761045f6102fa565b5b600082013567ffffffffffffffff81111561047e5761047d6102ff565b5b61048a8482850161041c565b91505092915050565b600073ffffffffffffffffffffffffffffffffffffffff82169050919050565b60006104be82610493565b9050919050565b6104ce816104b3565b82525050565b60006020820190506104e960008301846104c5565b92915050565b6000819050919050565b610502816104ef565b82525050565b600060208201905061051d60008301846104f9565b92915050565b600081519050919050565b600082825260208201905092915050565b60005b8381101561055d578082015181840152602081019050610542565b8381111561056c576000848401525b50505050565b600061057d82610523565b610587818561052e565b935061059781856020860161053f565b6105a08161030e565b840191505092915050565b600060208201905081810360008301526105c58184610572565b905092915050565b7f4e487b7100000000000000000000000000000000000000000000000000000000600052602260045260246000fd5b6000600282049050600182168061061457607f821691505b602082108103610627576106266105cd565b5b50919050565b60008190508160005260206000209050919050565b60006020601f8301049050919050565b600082821b905092915050565b60006008830261068f7fffffffffffffffffffffffffffffffffffffffffffffffffffffffffffffffff82610652565b6106998683610652565b95508019841693508086168417925050509392505050565b6000819050919050565b60006106d66106d16106cc846104ef565b6106b1565b6104ef565b9050919050565b6000819050919050565b6106f0836106bb565b6107046106fc826106dd565b84845461065f565b825550505050565b600090565b61071961070c565b6107248184846106e7565b505050565b5b818110156107485761073d600082610711565b60018101905061072a565b5050565b601f82111561078d5761075e8161062d565b61076784610642565b81016020851015610776578190505b61078a61078285610642565b830182610729565b50505b505050565b600082821c905092915050565b60006107b060001984600802610792565b1980831691505092915050565b60006107c9838361079f565b9150826002028217905092915050565b6107e282610523565b67ffffffffffffffff8111156107fb576107fa61031f565b5b61080582546105fc565b61081082828561074c565b600060209050601f8311600181146108435760008415610831578287015190505b61083b85826107bd565b8655506108a3565b601f1984166108518661062d565b60005b8281101561087957848901518255600182019150602085019450602081019050610854565b868310156108965784890151610892601f89168261079f565b8355505b6001600288020188555050505b505050505050565b7f4e487b7100000000000000000000000000000000000000000000000000000000600052601160045260246000fd5b60006108e5826104ef565b91507fffffffffffffffffffffffffffffffffffffffffffffffffffffffffffffffff8203610917576109166108ab565b5b60018201905091905056fea26469706673582212201d48cb3c310c9a66fd0860c57e4c90c9a3d2b64ac661297a9680d4f657062b4664736f6c634300080f0033",
					"opcodes": "PUSH1 0x80 PUSH1 0x40 MSTORE PUSH1 0x40 MLOAD DUP1 PUSH1 0x40 ADD PUSH1 0x40 MSTORE DUP1 PUSH1 0xC DUP2 MSTORE PUSH1 0x20 ADD PUSH32 0x48656C6C6F20576F726C64210000000000000000000000000000000000000000 DUP2 MSTORE POP PUSH1 0x0 SWAP1 DUP2 PUSH3 0x4A SWAP2 SWAP1 PUSH3 0x31A JUMP JUMPDEST POP CALLVALUE DUP1 ISZERO PUSH3 0x58 JUMPI PUSH1 0x0 DUP1 REVERT JUMPDEST POP CALLER PUSH1 0x1 PUSH1 0x0 PUSH2 0x100 EXP DUP2 SLOAD DUP2 PUSH20 0xFFFFFFFFFFFFFFFFFFFFFFFFFFFFFFFFFFFFFFFF MUL NOT AND SWAP1 DUP4 PUSH20 0xFFFFFFFFFFFFFFFFFFFFFFFFFFFFFFFFFFFFFFFF AND MUL OR SWAP1 SSTORE POP PUSH3 0x401 JUMP JUMPDEST PUSH1 0x0 DUP2 MLOAD SWAP1 POP SWAP2 SWAP1 POP JUMP JUMPDEST PUSH32 0x4E487B7100000000000000000000000000000000000000000000000000000000 PUSH1 0x0 MSTORE PUSH1 0x41 PUSH1 0x4 MSTORE PUSH1 0x24 PUSH1 0x0 REVERT JUMPDEST PUSH32 0x4E487B7100000000000000000000000000000000000000000000000000000000 PUSH1 0x0 MSTORE PUSH1 0x22 PUSH1 0x4 MSTORE PUSH1 0x24 PUSH1 0x0 REVERT JUMPDEST PUSH1 0x0 PUSH1 0x2 DUP3 DIV SWAP1 POP PUSH1 0x1 DUP3 AND DUP1 PUSH3 0x122 JUMPI PUSH1 0x7F DUP3 AND SWAP2 POP JUMPDEST PUSH1 0x20 DUP3 LT DUP2 SUB PUSH3 0x138 JUMPI PUSH3 0x137 PUSH3 0xDA JUMP JUMPDEST JUMPDEST POP SWAP2 SWAP1 POP JUMP JUMPDEST PUSH1 0x0 DUP2 SWAP1 POP DUP2 PUSH1 0x0 MSTORE PUSH1 0x20 PUSH1 0x0 KECCAK256 SWAP1 POP SWAP2 SWAP1 POP JUMP JUMPDEST PUSH1 0x0 PUSH1 0x20 PUSH1 0x1F DUP4 ADD DIV SWAP1 POP SWAP2 SWAP1 POP JUMP JUMPDEST PUSH1 0x0 DUP3 DUP3 SHL SWAP1 POP SWAP3 SWAP2 POP POP JUMP JUMPDEST PUSH1 0x0 PUSH1 0x8 DUP4 MUL PUSH3 0x1A2 PUSH32 0xFFFFFFFFFFFFFFFFFFFFFFFFFFFFFFFFFFFFFFFFFFFFFFFFFFFFFFFFFFFFFFFF DUP3 PUSH3 0x163 JUMP JUMPDEST PUSH3 0x1AE DUP7 DUP4 PUSH3 0x163 JUMP JUMPDEST SWAP6 POP DUP1 NOT DUP5 AND SWAP4 POP DUP1 DUP7 AND DUP5 OR SWAP3 POP POP POP SWAP4 SWAP3 POP POP POP JUMP JUMPDEST PUSH1 0x0 DUP2 SWAP1 POP SWAP2 SWAP1 POP JUMP JUMPDEST PUSH1 0x0 DUP2 SWAP1 POP SWAP2 SWAP1 POP JUMP JUMPDEST PUSH1 0x0 PUSH3 0x1FB PUSH3 0x1F5 PUSH3 0x1EF DUP5 PUSH3 0x1C6 JUMP JUMPDEST PUSH3 0x1D0 JUMP JUMPDEST PUSH3 0x1C6 JUMP JUMPDEST SWAP1 POP SWAP2 SWAP1 POP JUMP JUMPDEST PUSH1 0x0 DUP2 SWAP1 POP SWAP2 SWAP1 POP JUMP JUMPDEST PUSH3 0x217 DUP4 PUSH3 0x1DA JUMP JUMPDEST PUSH3 0x22F PUSH3 0x226 DUP3 PUSH3 0x202 JUMP JUMPDEST DUP5 DUP5 SLOAD PUSH3 0x170 JUMP JUMPDEST DUP3 SSTORE POP POP POP POP JUMP JUMPDEST PUSH1 0x0 SWAP1 JUMP JUMPDEST PUSH3 0x246 PUSH3 0x237 JUMP JUMPDEST PUSH3 0x253 DUP2 DUP5 DUP5 PUSH3 0x20C JUMP JUMPDEST POP POP POP JUMP JUMPDEST JUMPDEST DUP2 DUP2 LT ISZERO PUSH3 0x27B JUMPI PUSH3 0x26F PUSH1 0x0 DUP3 PUSH3 0x23C JUMP JUMPDEST PUSH1 0x1 DUP2 ADD SWAP1 POP PUSH3 0x259 JUMP JUMPDEST POP POP JUMP JUMPDEST PUSH1 0x1F DUP3 GT ISZERO PUSH3 0x2CA JUMPI PUSH3 0x294 DUP2 PUSH3 0x13E JUMP JUMPDEST PUSH3 0x29F DUP5 PUSH3 0x153 JUMP JUMPDEST DUP2 ADD PUSH1 0x20 DUP6 LT ISZERO PUSH3 0x2AF JUMPI DUP2 SWAP1 POP JUMPDEST PUSH3 0x2C7 PUSH3 0x2BE DUP6 PUSH3 0x153 JUMP JUMPDEST DUP4 ADD DUP3 PUSH3 0x258 JUMP JUMPDEST POP POP JUMPDEST POP POP POP JUMP JUMPDEST PUSH1 0x0 DUP3 DUP3 SHR SWAP1 POP SWAP3 SWAP2 POP POP JUMP JUMPDEST PUSH1 0x0 PUSH3 0x2EF PUSH1 0x0 NOT DUP5 PUSH1 0x8 MUL PUSH3 0x2CF JUMP JUMPDEST NOT DUP1 DUP4 AND SWAP2 POP POP SWAP3 SWAP2 POP POP JUMP JUMPDEST PUSH1 0x0 PUSH3 0x30A DUP4 DUP4 PUSH3 0x2DC JUMP JUMPDEST SWAP2 POP DUP3 PUSH1 0x2 MUL DUP3 OR SWAP1 POP SWAP3 SWAP2 POP POP JUMP JUMPDEST PUSH3 0x325 DUP3 PUSH3 0xA0 JUMP JUMPDEST PUSH8 0xFFFFFFFFFFFFFFFF DUP2 GT ISZERO PUSH3 0x341 JUMPI PUSH3 0x340 PUSH3 0xAB JUMP JUMPDEST JUMPDEST PUSH3 0x34D DUP3 SLOAD PUSH3 0x109 JUMP JUMPDEST PUSH3 0x35A DUP3 DUP3 DUP6 PUSH3 0x27F JUMP JUMPDEST PUSH1 0x0 PUSH1 0x20 SWAP1 POP PUSH1 0x1F DUP4 GT PUSH1 0x1 DUP2 EQ PUSH3 0x392 JUMPI PUSH1 0x0 DUP5 ISZERO PUSH3 0x37D JUMPI DUP3 DUP8 ADD MLOAD SWAP1 POP JUMPDEST PUSH3 0x389 DUP6 DUP3 PUSH3 0x2FC JUMP JUMPDEST DUP7 SSTORE POP PUSH3 0x3F9 JUMP JUMPDEST PUSH1 0x1F NOT DUP5 AND PUSH3 0x3A2 DUP7 PUSH3 0x13E JUMP JUMPDEST PUSH1 0x0 JUMPDEST DUP3 DUP2 LT ISZERO PUSH3 0x3CC JUMPI DUP5 DUP10 ADD MLOAD DUP3 SSTORE PUSH1 0x1 DUP3 ADD SWAP2 POP PUSH1 0x20 DUP6 ADD SWAP5 POP PUSH1 0x20 DUP2 ADD SWAP1 POP PUSH3 0x3A5 JUMP JUMPDEST DUP7 DUP4 LT ISZERO PUSH3 0x3EC JUMPI DUP5 DUP10 ADD MLOAD PUSH3 0x3E8 PUSH1 0x1F DUP10 AND DUP3 PUSH3 0x2DC JUMP JUMPDEST DUP4 SSTORE POP JUMPDEST PUSH1 0x1 PUSH1 0x2 DUP9 MUL ADD DUP9 SSTORE POP POP POP JUMPDEST POP POP POP POP POP POP JUMP JUMPDEST PUSH2 0x958 DUP1 PUSH3 0x411 PUSH1 0x0 CODECOPY PUSH1 0x0 RETURN INVALID PUSH1 0x80 PUSH1 0x40 MSTORE CALLVALUE DUP1 ISZERO PUSH2 0x10 JUMPI PUSH1 0x0 DUP1 REVERT JUMPDEST POP PUSH1 0x4 CALLDATASIZE LT PUSH2 0x62 JUMPI PUSH1 0x0 CALLDATALOAD PUSH1 0xE0 SHR DUP1 PUSH4 0x368B8772 EQ PUSH2 0x67 JUMPI DUP1 PUSH4 0x8DA5CB5B EQ PUSH2 0x83 JUMPI DUP1 PUSH4 0xA7C9D41A EQ PUSH2 0xA1 JUMPI DUP1 PUSH4 0xCE6D41DE EQ PUSH2 0xBF JUMPI DUP1 PUSH4 0xE333C8B8 EQ PUSH2 0xDD JUMPI DUP1 PUSH4 0xF3930A77 EQ PUSH2 0xFB JUMPI JUMPDEST PUSH1 0x0 DUP1 REVERT JUMPDEST PUSH2 0x81 PUSH1 0x4 DUP1 CALLDATASIZE SUB DUP2 ADD SWAP1 PUSH2 0x7C SWAP2 SWAP1 PUSH2 0x44A JUMP JUMPDEST PUSH2 0x119 JUMP JUMPDEST STOP JUMPDEST PUSH2 0x8B PUSH2 0x19A JUMP JUMPDEST PUSH1 0x40 MLOAD PUSH2 0x98 SWAP2 SWAP1 PUSH2 0x4D4 JUMP JUMPDEST PUSH1 0x40 MLOAD DUP1 SWAP2 SUB SWAP1 RETURN JUMPDEST PUSH2 0xA9 PUSH2 0x1C0 JUMP JUMPDEST PUSH1 0x40 MLOAD PUSH2 0xB6 SWAP2 SWAP1 PUSH2 0x508 JUMP JUMPDEST PUSH1 0x40 MLOAD DUP1 SWAP2 SUB SWAP1 RETURN JUMPDEST PUSH2 0xC7 PUSH2 0x1C6 JUMP JUMPDEST PUSH1 0x40 MLOAD PUSH2 0xD4 SWAP2 SWAP1 PUSH2 0x5AB JUMP JUMPDEST PUSH1 0x40 MLOAD DUP1 SWAP2 SUB SWAP1 RETURN JUMPDEST PUSH2 0xE5 PUSH2 0x258 JUMP JUMPDEST PUSH1 0x40 MLOAD PUSH2 0xF2 SWAP2 SWAP1 PUSH2 0x5AB JUMP JUMPDEST PUSH1 0x40 MLOAD DUP1 SWAP2 SUB SWAP1 RETURN JUMPDEST PUSH2 0x103 PUSH2 0x2E6 JUMP JUMPDEST PUSH1 0x40 MLOAD PUSH2 0x110 SWAP2 SWAP1 PUSH2 0x508 JUMP JUMPDEST PUSH1 0x40 MLOAD DUP1 SWAP2 SUB SWAP1 RETURN JUMPDEST PUSH1 0x1 PUSH1 0x0 SWAP1 SLOAD SWAP1 PUSH2 0x100 EXP SWAP1 DIV PUSH20 0xFFFFFFFFFFFFFFFFFFFFFFFFFFFFFFFFFFFFFFFF AND PUSH20 0xFFFFFFFFFFFFFFFFFFFFFFFFFFFFFFFFFFFFFFFF AND CALLER PUSH20 0xFFFFFFFFFFFFFFFFFFFFFFFFFFFFFFFFFFFFFFFF AND SUB PUSH2 0x197 JUMPI DUP1 PUSH1 0x0 SWAP1 DUP2 PUSH2 0x17D SWAP2 SWAP1 PUSH2 0x7D9 JUMP JUMPDEST POP PUSH1 0x2 PUSH1 0x0 DUP2 SLOAD DUP1 SWAP3 SWAP2 SWAP1 PUSH2 0x191 SWAP1 PUSH2 0x8DA JUMP JUMPDEST SWAP2 SWAP1 POP SSTORE POP JUMPDEST POP JUMP JUMPDEST PUSH1 0x1 PUSH1 0x0 SWAP1 SLOAD SWAP1 PUSH2 0x100 EXP SWAP1 DIV PUSH20 0xFFFFFFFFFFFFFFFFFFFFFFFFFFFFFFFFFFFFFFFF AND DUP2 JUMP JUMPDEST PUSH1 0x2 SLOAD DUP2 JUMP JUMPDEST PUSH1 0x60 PUSH1 0x0 DUP1 SLOAD PUSH2 0x1D5 SWAP1 PUSH2 0x5FC JUMP JUMPDEST DUP1 PUSH1 0x1F ADD PUSH1 0x20 DUP1 SWAP2 DIV MUL PUSH1 0x20 ADD PUSH1 0x40 MLOAD SWAP1 DUP2 ADD PUSH1 0x40 MSTORE DUP1 SWAP3 SWAP2 SWAP1 DUP2 DUP2 MSTORE PUSH1 0x20 ADD DUP3 DUP1 SLOAD PUSH2 0x201 SWAP1 PUSH2 0x5FC JUMP JUMPDEST DUP1 ISZERO PUSH2 0x24E JUMPI DUP1 PUSH1 0x1F LT PUSH2 0x223 JUMPI PUSH2 0x100 DUP1 DUP4 SLOAD DIV MUL DUP4 MSTORE SWAP2 PUSH1 0x20 ADD SWAP2 PUSH2 0x24E JUMP JUMPDEST DUP3 ADD SWAP2 SWAP1 PUSH1 0x0 MSTORE PUSH1 0x20 PUSH1 0x0 KECCAK256 SWAP1 JUMPDEST DUP2 SLOAD DUP2 MSTORE SWAP1 PUSH1 0x1 ADD SWAP1 PUSH1 0x20 ADD DUP1 DUP4 GT PUSH2 0x231 JUMPI DUP3 SWAP1 SUB PUSH1 0x1F AND DUP3 ADD SWAP2 JUMPDEST POP POP POP POP POP SWAP1 POP SWAP1 JUMP JUMPDEST PUSH1 0x0 DUP1 SLOAD PUSH2 0x265 SWAP1 PUSH2 0x5FC JUMP JUMPDEST DUP1 PUSH1 0x1F ADD PUSH1 0x20 DUP1 SWAP2 DIV MUL PUSH1 0x20 ADD PUSH1 0x40 MLOAD SWAP1 DUP2 ADD PUSH1 0x40 MSTORE DUP1 SWAP3 SWAP2 SWAP1 DUP2 DUP2 MSTORE PUSH1 0x20 ADD DUP3 DUP1 SLOAD PUSH2 0x291 SWAP1 PUSH2 0x5FC JUMP JUMPDEST DUP1 ISZERO PUSH2 0x2DE JUMPI DUP1 PUSH1 0x1F LT PUSH2 0x2B3 JUMPI PUSH2 0x100 DUP1 DUP4 SLOAD DIV MUL DUP4 MSTORE SWAP2 PUSH1 0x20 ADD SWAP2 PUSH2 0x2DE JUMP JUMPDEST DUP3 ADD SWAP2 SWAP1 PUSH1 0x0 MSTORE PUSH1 0x20 PUSH1 0x0 KECCAK256 SWAP1 JUMPDEST DUP2 SLOAD DUP2 MSTORE SWAP1 PUSH1 0x1 ADD SWAP1 PUSH1 0x20 ADD DUP1 DUP4 GT PUSH2 0x2C1 JUMPI DUP3 SWAP1 SUB PUSH1 0x1F AND DUP3 ADD SWAP2 JUMPDEST POP POP POP POP POP DUP2 JUMP JUMPDEST PUSH1 0x0 PUSH1 0x2 SLOAD SWAP1 POP SWAP1 JUMP JUMPDEST PUSH1 0x0 PUSH1 0x40 MLOAD SWAP1 POP SWAP1 JUMP JUMPDEST PUSH1 0x0 DUP1 REVERT JUMPDEST PUSH1 0x0 DUP1 REVERT JUMPDEST PUSH1 0x0 DUP1 REVERT JUMPDEST PUSH1 0x0 DUP1 REVERT JUMPDEST PUSH1 0x0 PUSH1 0x1F NOT PUSH1 0x1F DUP4 ADD AND SWAP1 POP SWAP2 SWAP1 POP JUMP JUMPDEST PUSH32 0x4E487B7100000000000000000000000000000000000000000000000000000000 PUSH1 0x0 MSTORE PUSH1 0x41 PUSH1 0x4 MSTORE PUSH1 0x24 PUSH1 0x0 REVERT JUMPDEST PUSH2 0x357 DUP3 PUSH2 0x30E JUMP JUMPDEST DUP2 ADD DUP2 DUP2 LT PUSH8 0xFFFFFFFFFFFFFFFF DUP3 GT OR ISZERO PUSH2 0x376 JUMPI PUSH2 0x375 PUSH2 0x31F JUMP JUMPDEST JUMPDEST DUP1 PUSH1 0x40 MSTORE POP POP POP JUMP JUMPDEST PUSH1 0x0 PUSH2 0x389 PUSH2 0x2F0 JUMP JUMPDEST SWAP1 POP PUSH2 0x395 DUP3 DUP3 PUSH2 0x34E JUMP JUMPDEST SWAP2 SWAP1 POP JUMP JUMPDEST PUSH1 0x0 PUSH8 0xFFFFFFFFFFFFFFFF DUP3 GT ISZERO PUSH2 0x3B5 JUMPI PUSH2 0x3B4 PUSH2 0x31F JUMP JUMPDEST JUMPDEST PUSH2 0x3BE DUP3 PUSH2 0x30E JUMP JUMPDEST SWAP1 POP PUSH1 0x20 DUP2 ADD SWAP1 POP SWAP2 SWAP1 POP JUMP JUMPDEST DUP3 DUP2 DUP4 CALLDATACOPY PUSH1 0x0 DUP4 DUP4 ADD MSTORE POP POP POP JUMP JUMPDEST PUSH1 0x0 PUSH2 0x3ED PUSH2 0x3E8 DUP5 PUSH2 0x39A JUMP JUMPDEST PUSH2 0x37F JUMP JUMPDEST SWAP1 POP DUP3 DUP2 MSTORE PUSH1 0x20 DUP2 ADD DUP5 DUP5 DUP5 ADD GT ISZERO PUSH2 0x409 JUMPI PUSH2 0x408 PUSH2 0x309 JUMP JUMPDEST JUMPDEST PUSH2 0x414 DUP5 DUP3 DUP6 PUSH2 0x3CB JUMP JUMPDEST POP SWAP4 SWAP3 POP POP POP JUMP JUMPDEST PUSH1 0x0 DUP3 PUSH1 0x1F DUP4 ADD SLT PUSH2 0x431 JUMPI PUSH2 0x430 PUSH2 0x304 JUMP JUMPDEST JUMPDEST DUP2 CALLDATALOAD PUSH2 0x441 DUP5 DUP3 PUSH1 0x20 DUP7 ADD PUSH2 0x3DA JUMP JUMPDEST SWAP2 POP POP SWAP3 SWAP2 POP POP JUMP JUMPDEST PUSH1 0x0 PUSH1 0x20 DUP3 DUP5 SUB SLT ISZERO PUSH2 0x460 JUMPI PUSH2 0x45F PUSH2 0x2FA JUMP JUMPDEST JUMPDEST PUSH1 0x0 DUP3 ADD CALLDATALOAD PUSH8 0xFFFFFFFFFFFFFFFF DUP2 GT ISZERO PUSH2 0x47E JUMPI PUSH2 0x47D PUSH2 0x2FF JUMP JUMPDEST JUMPDEST PUSH2 0x48A DUP5 DUP3 DUP6 ADD PUSH2 0x41C JUMP JUMPDEST SWAP2 POP POP SWAP3 SWAP2 POP POP JUMP JUMPDEST PUSH1 0x0 PUSH20 0xFFFFFFFFFFFFFFFFFFFFFFFFFFFFFFFFFFFFFFFF DUP3 AND SWAP1 POP SWAP2 SWAP1 POP JUMP JUMPDEST PUSH1 0x0 PUSH2 0x4BE DUP3 PUSH2 0x493 JUMP JUMPDEST SWAP1 POP SWAP2 SWAP1 POP JUMP JUMPDEST PUSH2 0x4CE DUP2 PUSH2 0x4B3 JUMP JUMPDEST DUP3 MSTORE POP POP JUMP JUMPDEST PUSH1 0x0 PUSH1 0x20 DUP3 ADD SWAP1 POP PUSH2 0x4E9 PUSH1 0x0 DUP4 ADD DUP5 PUSH2 0x4C5 JUMP JUMPDEST SWAP3 SWAP2 POP POP JUMP JUMPDEST PUSH1 0x0 DUP2 SWAP1 POP SWAP2 SWAP1 POP JUMP JUMPDEST PUSH2 0x502 DUP2 PUSH2 0x4EF JUMP JUMPDEST DUP3 MSTORE POP POP JUMP JUMPDEST PUSH1 0x0 PUSH1 0x20 DUP3 ADD SWAP1 POP PUSH2 0x51D PUSH1 0x0 DUP4 ADD DUP5 PUSH2 0x4F9 JUMP JUMPDEST SWAP3 SWAP2 POP POP JUMP JUMPDEST PUSH1 0x0 DUP2 MLOAD SWAP1 POP SWAP2 SWAP1 POP JUMP JUMPDEST PUSH1 0x0 DUP3 DUP3 MSTORE PUSH1 0x20 DUP3 ADD SWAP1 POP SWAP3 SWAP2 POP POP JUMP JUMPDEST PUSH1 0x0 JUMPDEST DUP4 DUP2 LT ISZERO PUSH2 0x55D JUMPI DUP1 DUP3 ADD MLOAD DUP2 DUP5 ADD MSTORE PUSH1 0x20 DUP2 ADD SWAP1 POP PUSH2 0x542 JUMP JUMPDEST DUP4 DUP2 GT ISZERO PUSH2 0x56C JUMPI PUSH1 0x0 DUP5 DUP5 ADD MSTORE JUMPDEST POP POP POP POP JUMP JUMPDEST PUSH1 0x0 PUSH2 0x57D DUP3 PUSH2 0x523 JUMP JUMPDEST PUSH2 0x587 DUP2 DUP6 PUSH2 0x52E JUMP JUMPDEST SWAP4 POP PUSH2 0x597 DUP2 DUP6 PUSH1 0x20 DUP7 ADD PUSH2 0x53F JUMP JUMPDEST PUSH2 0x5A0 DUP2 PUSH2 0x30E JUMP JUMPDEST DUP5 ADD SWAP2 POP POP SWAP3 SWAP2 POP POP JUMP JUMPDEST PUSH1 0x0 PUSH1 0x20 DUP3 ADD SWAP1 POP DUP2 DUP2 SUB PUSH1 0x0 DUP4 ADD MSTORE PUSH2 0x5C5 DUP2 DUP5 PUSH2 0x572 JUMP JUMPDEST SWAP1 POP SWAP3 SWAP2 POP POP JUMP JUMPDEST PUSH32 0x4E487B7100000000000000000000000000000000000000000000000000000000 PUSH1 0x0 MSTORE PUSH1 0x22 PUSH1 0x4 MSTORE PUSH1 0x24 PUSH1 0x0 REVERT JUMPDEST PUSH1 0x0 PUSH1 0x2 DUP3 DIV SWAP1 POP PUSH1 0x1 DUP3 AND DUP1 PUSH2 0x614 JUMPI PUSH1 0x7F DUP3 AND SWAP2 POP JUMPDEST PUSH1 0x20 DUP3 LT DUP2 SUB PUSH2 0x627 JUMPI PUSH2 0x626 PUSH2 0x5CD JUMP JUMPDEST JUMPDEST POP SWAP2 SWAP1 POP JUMP JUMPDEST PUSH1 0x0 DUP2 SWAP1 POP DUP2 PUSH1 0x0 MSTORE PUSH1 0x20 PUSH1 0x0 KECCAK256 SWAP1 POP SWAP2 SWAP1 POP JUMP JUMPDEST PUSH1 0x0 PUSH1 0x20 PUSH1 0x1F DUP4 ADD DIV SWAP1 POP SWAP2 SWAP1 POP JUMP JUMPDEST PUSH1 0x0 DUP3 DUP3 SHL SWAP1 POP SWAP3 SWAP2 POP POP JUMP JUMPDEST PUSH1 0x0 PUSH1 0x8 DUP4 MUL PUSH2 0x68F PUSH32 0xFFFFFFFFFFFFFFFFFFFFFFFFFFFFFFFFFFFFFFFFFFFFFFFFFFFFFFFFFFFFFFFF DUP3 PUSH2 0x652 JUMP JUMPDEST PUSH2 0x699 DUP7 DUP4 PUSH2 0x652 JUMP JUMPDEST SWAP6 POP DUP1 NOT DUP5 AND SWAP4 POP DUP1 DUP7 AND DUP5 OR SWAP3 POP POP POP SWAP4 SWAP3 POP POP POP JUMP JUMPDEST PUSH1 0x0 DUP2 SWAP1 POP SWAP2 SWAP1 POP JUMP JUMPDEST PUSH1 0x0 PUSH2 0x6D6 PUSH2 0x6D1 PUSH2 0x6CC DUP5 PUSH2 0x4EF JUMP JUMPDEST PUSH2 0x6B1 JUMP JUMPDEST PUSH2 0x4EF JUMP JUMPDEST SWAP1 POP SWAP2 SWAP1 POP JUMP JUMPDEST PUSH1 0x0 DUP2 SWAP1 POP SWAP2 SWAP1 POP JUMP JUMPDEST PUSH2 0x6F0 DUP4 PUSH2 0x6BB JUMP JUMPDEST PUSH2 0x704 PUSH2 0x6FC DUP3 PUSH2 0x6DD JUMP JUMPDEST DUP5 DUP5 SLOAD PUSH2 0x65F JUMP JUMPDEST DUP3 SSTORE POP POP POP POP JUMP JUMPDEST PUSH1 0x0 SWAP1 JUMP JUMPDEST PUSH2 0x719 PUSH2 0x70C JUMP JUMPDEST PUSH2 0x724 DUP2 DUP5 DUP5 PUSH2 0x6E7 JUMP JUMPDEST POP POP POP JUMP JUMPDEST JUMPDEST DUP2 DUP2 LT ISZERO PUSH2 0x748 JUMPI PUSH2 0x73D PUSH1 0x0 DUP3 PUSH2 0x711 JUMP JUMPDEST PUSH1 0x1 DUP2 ADD SWAP1 POP PUSH2 0x72A JUMP JUMPDEST POP POP JUMP JUMPDEST PUSH1 0x1F DUP3 GT ISZERO PUSH2 0x78D JUMPI PUSH2 0x75E DUP2 PUSH2 0x62D JUMP JUMPDEST PUSH2 0x767 DUP5 PUSH2 0x642 JUMP JUMPDEST DUP2 ADD PUSH1 0x20 DUP6 LT ISZERO PUSH2 0x776 JUMPI DUP2 SWAP1 POP JUMPDEST PUSH2 0x78A PUSH2 0x782 DUP6 PUSH2 0x642 JUMP JUMPDEST DUP4 ADD DUP3 PUSH2 0x729 JUMP JUMPDEST POP POP JUMPDEST POP POP POP JUMP JUMPDEST PUSH1 0x0 DUP3 DUP3 SHR SWAP1 POP SWAP3 SWAP2 POP POP JUMP JUMPDEST PUSH1 0x0 PUSH2 0x7B0 PUSH1 0x0 NOT DUP5 PUSH1 0x8 MUL PUSH2 0x792 JUMP JUMPDEST NOT DUP1 DUP4 AND SWAP2 POP POP SWAP3 SWAP2 POP POP JUMP JUMPDEST PUSH1 0x0 PUSH2 0x7C9 DUP4 DUP4 PUSH2 0x79F JUMP JUMPDEST SWAP2 POP DUP3 PUSH1 0x2 MUL DUP3 OR SWAP1 POP SWAP3 SWAP2 POP POP JUMP JUMPDEST PUSH2 0x7E2 DUP3 PUSH2 0x523 JUMP JUMPDEST PUSH8 0xFFFFFFFFFFFFFFFF DUP2 GT ISZERO PUSH2 0x7FB JUMPI PUSH2 0x7FA PUSH2 0x31F JUMP JUMPDEST JUMPDEST PUSH2 0x805 DUP3 SLOAD PUSH2 0x5FC JUMP JUMPDEST PUSH2 0x810 DUP3 DUP3 DUP6 PUSH2 0x74C JUMP JUMPDEST PUSH1 0x0 PUSH1 0x20 SWAP1 POP PUSH1 0x1F DUP4 GT PUSH1 0x1 DUP2 EQ PUSH2 0x843 JUMPI PUSH1 0x0 DUP5 ISZERO PUSH2 0x831 JUMPI DUP3 DUP8 ADD MLOAD SWAP1 POP JUMPDEST PUSH2 0x83B DUP6 DUP3 PUSH2 0x7BD JUMP JUMPDEST DUP7 SSTORE POP PUSH2 0x8A3 JUMP JUMPDEST PUSH1 0x1F NOT DUP5 AND PUSH2 0x851 DUP7 PUSH2 0x62D JUMP JUMPDEST PUSH1 0x0 JUMPDEST DUP3 DUP2 LT ISZERO PUSH2 0x879 JUMPI DUP5 DUP10 ADD MLOAD DUP3 SSTORE PUSH1 0x1 DUP3 ADD SWAP2 POP PUSH1 0x20 DUP6 ADD SWAP5 POP PUSH1 0x20 DUP2 ADD SWAP1 POP PUSH2 0x854 JUMP JUMPDEST DUP7 DUP4 LT ISZERO PUSH2 0x896 JUMPI DUP5 DUP10 ADD MLOAD PUSH2 0x892 PUSH1 0x1F DUP10 AND DUP3 PUSH2 0x79F JUMP JUMPDEST DUP4 SSTORE POP JUMPDEST PUSH1 0x1 PUSH1 0x2 DUP9 MUL ADD DUP9 SSTORE POP POP POP JUMPDEST POP POP POP POP POP POP JUMP JUMPDEST PUSH32 0x4E487B7100000000000000000000000000000000000000000000000000000000 PUSH1 0x0 MSTORE PUSH1 0x11 PUSH1 0x4 MSTORE PUSH1 0x24 PUSH1 0x0 REVERT JUMPDEST PUSH1 0x0 PUSH2 0x8E5 DUP3 PUSH2 0x4EF JUMP JUMPDEST SWAP2 POP PUSH32 0xFFFFFFFFFFFFFFFFFFFFFFFFFFFFFFFFFFFFFFFFFFFFFFFFFFFFFFFFFFFFFFFF DUP3 SUB PUSH2 0x917 JUMPI PUSH2 0x916 PUSH2 0x8AB JUMP JUMPDEST JUMPDEST PUSH1 0x1 DUP3 ADD SWAP1 POP SWAP2 SWAP1 POP JUMP INVALID LOG2 PUSH5 0x6970667358 0x22 SLT KECCAK256 SAR BASEFEE 0xCB EXTCODECOPY BALANCE 0xC SWAP11 PUSH7 0xFD0860C57E4C90 0xC9 LOG3 0xD2 0xB6 0x4A 0xC6 PUSH2 0x297A SWAP7 DUP1 0xD4 0xF6 JUMPI MOD 0x2B CHAINID PUSH5 0x736F6C6343 STOP ADDMOD 0xF STOP CALLER "
				},
				"gasEstimates": {
					"creation": {
						"codeDepositCost": "478400",
						"executionCost": "infinite",
						"totalCost": "infinite"
					},
					"external": {
						"getMessage()": "infinite",
						"getUpdatesCount()": "2525",
						"messageUpdates()": "2451",
						"owner()": "2514",
						"setMessage(string)": "infinite",
						"storageMessage()": "infinite"
					}
				},
				"methodIdentifiers": {
					"getMessage()": "ce6d41de",
					"getUpdatesCount()": "f3930a77",
					"messageUpdates()": "a7c9d41a",
					"owner()": "8da5cb5b",
					"setMessage(string)": "368b8772",
					"storageMessage()": "e333c8b8"
				}
			},
			"storageLayout": {
				"storage": [
					{
						"astId": 4,
						"contract": "contracts/TheBlockChainMessenger.sol:TheBlockChainMessenger",
						"label": "storageMessage",
						"offset": 0,
						"slot": "0",
						"type": "t_string_storage"
					},
					{
						"astId": 6,
						"contract": "contracts/TheBlockChainMessenger.sol:TheBlockChainMessenger",
						"label": "owner",
						"offset": 0,
						"slot": "1",
						"type": "t_address"
					},
					{
						"astId": 8,
						"contract": "contracts/TheBlockChainMessenger.sol:TheBlockChainMessenger",
						"label": "messageUpdates",
						"offset": 0,
						"slot": "2",
						"type": "t_uint256"
					}
				],
				"types": {
					"t_address": {
						"encoding": "inplace",
						"label": "address",
						"numberOfBytes": "20"
					},
					"t_string_storage": {
						"encoding": "bytes",
						"label": "string",
						"numberOfBytes": "32"
					},
					"t_uint256": {
						"encoding": "inplace",
						"label": "uint256",
						"numberOfBytes": "32"
					}
				}
			},
			"userdoc": {
				"kind": "user",
				"methods": {},
				"version": 1
			}
		}
	}
}